{
  "contractName": "GiornaleDeiLavori",
  "abi": [
    {
      "inputs": [],
      "payable": false,
      "stateMutability": "nonpayable",
      "type": "constructor"
    },
    {
      "constant": true,
      "inputs": [
        {
          "internalType": "uint256",
          "name": "",
          "type": "uint256"
        }
      ],
      "name": "giornale",
      "outputs": [
        {
          "internalType": "uint256",
          "name": "id",
          "type": "uint256"
        },
        {
          "internalType": "string",
          "name": "hashImmagine",
          "type": "string"
        },
        {
          "internalType": "string",
          "name": "timestamp",
          "type": "string"
        },
        {
          "internalType": "string",
          "name": "misure",
          "type": "string"
        },
        {
          "internalType": "string",
          "name": "annotazioni",
          "type": "string"
        }
      ],
      "payable": false,
      "stateMutability": "view",
      "type": "function"
    },
    {
      "constant": false,
      "inputs": [
        {
          "internalType": "string",
          "name": "imageHash",
          "type": "string"
        },
        {
          "internalType": "string",
          "name": "timestamp",
          "type": "string"
        },
        {
          "internalType": "string",
          "name": "misure",
          "type": "string"
        },
        {
          "internalType": "string",
          "name": "annotazioni",
          "type": "string"
        }
      ],
      "name": "storeItem",
      "outputs": [],
      "payable": false,
      "stateMutability": "nonpayable",
      "type": "function"
    },
    {
      "constant": true,
      "inputs": [],
      "name": "getGiornale",
      "outputs": [
        {
          "components": [
            {
              "internalType": "uint256",
              "name": "id",
              "type": "uint256"
            },
            {
              "internalType": "string",
              "name": "hashImmagine",
              "type": "string"
            },
            {
              "internalType": "string",
              "name": "timestamp",
              "type": "string"
            },
            {
              "internalType": "string",
              "name": "misure",
              "type": "string"
            },
            {
              "internalType": "string",
              "name": "annotazioni",
              "type": "string"
            }
          ],
          "internalType": "struct GiornaleDeiLavori.GiornaleItem[]",
          "name": "",
          "type": "tuple[]"
        }
      ],
      "payable": false,
      "stateMutability": "view",
      "type": "function"
    },
    {
      "constant": true,
      "inputs": [],
      "name": "getLength",
      "outputs": [
        {
          "internalType": "uint256",
          "name": "",
          "type": "uint256"
        }
      ],
      "payable": false,
      "stateMutability": "view",
      "type": "function"
    }
  ],
  "bytecode": "0x608060405234801561001057600080fd5b506000600181905550610d2a806100286000396000f3fe608060405234801561001057600080fd5b506004361061004c5760003560e01c806338d9acdc146100515780635c7539bf146100855780637f5510e4146100a1578063be1c766b146100bf575b600080fd5b61006b6004803603610066919081019061093b565b6100dd565b60405161007c959493929190610b45565b60405180910390f35b61009f600480360361009a9190810190610878565b610380565b005b6100a961046f565b6040516100b69190610b08565b60405180910390f35b6100c7610760565b6040516100d49190610b2a565b60405180910390f35b600081815481106100ea57fe5b9060005260206000209060050201600091509050806000015490806001018054600181600116156101000203166002900480601f01602080910402602001604051908101604052809291908181526020018280546001816001161561010002031660029004801561019c5780601f106101715761010080835404028352916020019161019c565b820191906000526020600020905b81548152906001019060200180831161017f57829003601f168201915b505050505090806002018054600181600116156101000203166002900480601f01602080910402602001604051908101604052809291908181526020018280546001816001161561010002031660029004801561023a5780601f1061020f5761010080835404028352916020019161023a565b820191906000526020600020905b81548152906001019060200180831161021d57829003601f168201915b505050505090806003018054600181600116156101000203166002900480601f0160208091040260200160405190810160405280929190818152602001828054600181600116156101000203166002900480156102d85780601f106102ad576101008083540402835291602001916102d8565b820191906000526020600020905b8154815290600101906020018083116102bb57829003601f168201915b505050505090806004018054600181600116156101000203166002900480601f0160208091040260200160405190810160405280929190818152602001828054600181600116156101000203166002900480156103765780601f1061034b57610100808354040283529160200191610376565b820191906000526020600020905b81548152906001019060200180831161035957829003601f168201915b5050505050905085565b60006040518060a00160405280600154815260200186815260200185815260200184815260200183815250908060018154018082558091505090600182039060005260206000209060050201600090919290919091506000820151816000015560208201518160010190805190602001906103fc92919061076a565b50604082015181600201908051906020019061041992919061076a565b50606082015181600301908051906020019061043692919061076a565b50608082015181600401908051906020019061045392919061076a565b5050505060016000815480929190600101919050555050505050565b60606000805480602002602001604051908101604052809291908181526020016000905b8282101561075757838290600052602060002090600502016040518060a001604052908160008201548152602001600182018054600181600116156101000203166002900480601f0160208091040260200160405190810160405280929190818152602001828054600181600116156101000203166002900480156105595780601f1061052e57610100808354040283529160200191610559565b820191906000526020600020905b81548152906001019060200180831161053c57829003601f168201915b50505050508152602001600282018054600181600116156101000203166002900480601f0160208091040260200160405190810160405280929190818152602001828054600181600116156101000203166002900480156105fb5780601f106105d0576101008083540402835291602001916105fb565b820191906000526020600020905b8154815290600101906020018083116105de57829003601f168201915b50505050508152602001600382018054600181600116156101000203166002900480601f01602080910402602001604051908101604052809291908181526020018280546001816001161561010002031660029004801561069d5780601f106106725761010080835404028352916020019161069d565b820191906000526020600020905b81548152906001019060200180831161068057829003601f168201915b50505050508152602001600482018054600181600116156101000203166002900480601f01602080910402602001604051908101604052809291908181526020018280546001816001161561010002031660029004801561073f5780601f106107145761010080835404028352916020019161073f565b820191906000526020600020905b81548152906001019060200180831161072257829003601f168201915b50505050508152505081526020019060010190610493565b50505050905090565b6000600154905090565b828054600181600116156101000203166002900490600052602060002090601f016020900481019282601f106107ab57805160ff19168380011785556107d9565b828001600101855582156107d9579182015b828111156107d85782518255916020019190600101906107bd565b5b5090506107e691906107ea565b5090565b61080c91905b808211156108085760008160009055506001016107f0565b5090565b90565b600082601f83011261082057600080fd5b813561083361082e82610be1565b610bb4565b9150808252602083016020830185838301111561084f57600080fd5b61085a838284610c7d565b50505092915050565b60008135905061087281610cd0565b92915050565b6000806000806080858703121561088e57600080fd5b600085013567ffffffffffffffff8111156108a857600080fd5b6108b48782880161080f565b945050602085013567ffffffffffffffff8111156108d157600080fd5b6108dd8782880161080f565b935050604085013567ffffffffffffffff8111156108fa57600080fd5b6109068782880161080f565b925050606085013567ffffffffffffffff81111561092357600080fd5b61092f8782880161080f565b91505092959194509250565b60006020828403121561094d57600080fd5b600061095b84828501610863565b91505092915050565b60006109708383610a5f565b905092915050565b600061098382610c1d565b61098d8185610c40565b93508360208202850161099f85610c0d565b8060005b858110156109db57848403895281516109bc8582610964565b94506109c783610c33565b925060208a019950506001810190506109a3565b50829750879550505050505092915050565b60006109f882610c28565b610a028185610c51565b9350610a12818560208601610c8c565b610a1b81610cbf565b840191505092915050565b6000610a3182610c28565b610a3b8185610c62565b9350610a4b818560208601610c8c565b610a5481610cbf565b840191505092915050565b600060a083016000830151610a776000860182610aea565b5060208301518482036020860152610a8f82826109ed565b91505060408301518482036040860152610aa982826109ed565b91505060608301518482036060860152610ac382826109ed565b91505060808301518482036080860152610add82826109ed565b9150508091505092915050565b610af381610c73565b82525050565b610b0281610c73565b82525050565b60006020820190508181036000830152610b228184610978565b905092915050565b6000602082019050610b3f6000830184610af9565b92915050565b600060a082019050610b5a6000830188610af9565b8181036020830152610b6c8187610a26565b90508181036040830152610b808186610a26565b90508181036060830152610b948185610a26565b90508181036080830152610ba88184610a26565b90509695505050505050565b6000604051905081810181811067ffffffffffffffff82111715610bd757600080fd5b8060405250919050565b600067ffffffffffffffff821115610bf857600080fd5b601f19601f8301169050602081019050919050565b6000819050602082019050919050565b600081519050919050565b600081519050919050565b6000602082019050919050565b600082825260208201905092915050565b600082825260208201905092915050565b600082825260208201905092915050565b6000819050919050565b82818337600083830152505050565b60005b83811015610caa578082015181840152602081019050610c8f565b83811115610cb9576000848401525b50505050565b6000601f19601f8301169050919050565b610cd981610c73565b8114610ce457600080fd5b5056fea365627a7a723158202b76ad80c5b5fa2f9b4c7e826983c1da366d904bcb90ce2de62614a48a3c67636c6578706572696d656e74616cf564736f6c63430005100040",
  "source": "pragma solidity >=0.4.22 <0.7.0;\npragma experimental ABIEncoderV2;\n\ncontract GiornaleDeiLavori {\n    \n    struct GiornaleItem {\n        uint id;\n        string hashImmagine;\n        string timestamp;\n        string misure;\n        string annotazioni;\n    }\n    \n    GiornaleItem[] public giornale;\n\n    uint256 length;\n    \n    constructor() public {\n        length = 0;\n    }\n\n    function storeItem(string memory imageHash, string memory timestamp, string memory misure, string memory annotazioni) public {\n        giornale.push(GiornaleItem({\n            id: length,\n            hashImmagine: imageHash,\n            timestamp: timestamp,\n            misure: misure,\n            annotazioni: annotazioni\n        }));\n        length++;\n    }\n    \n    function getGiornale() public view returns (GiornaleItem[] memory){\n        return giornale;\n    }\n\n    function getLength() public view returns (uint256){\n        return length;\n    }\n}\n",
  "sourcePath": "/home/kevin/progetti/progetto-cybsec/contracts/GiornaleDeiLavori.sol",
  "compiler": {
    "name": "solc",
    "version": "0.5.16+commit.9c3226ce.Emscripten.clang"
  },
  "schemaVersion": "3.2.3",
  "updatedAt": "2020-08-05T14:39:57.954Z",
  "networkType": "quorum",
  "devdoc": {
    "methods": {}
  },
  "userdoc": {
    "methods": {}
  }
}