{
  "contractName": "GiornaleDeiLavori",
  "abi": [
    {
      "inputs": [],
      "payable": false,
      "stateMutability": "nonpayable",
      "type": "constructor"
    },
    {
      "constant": true,
      "inputs": [
        {
          "internalType": "uint256",
          "name": "",
          "type": "uint256"
        }
      ],
      "name": "giornale",
      "outputs": [
        {
          "internalType": "uint256",
          "name": "id",
          "type": "uint256"
        },
        {
          "internalType": "string",
          "name": "hashImmagine",
          "type": "string"
        },
        {
          "internalType": "string",
          "name": "timestamp",
          "type": "string"
        },
        {
          "internalType": "string",
          "name": "misure",
          "type": "string"
        },
        {
          "internalType": "string",
          "name": "annotazioni",
          "type": "string"
        }
      ],
      "payable": false,
      "stateMutability": "view",
      "type": "function"
    },
    {
      "constant": false,
      "inputs": [
        {
          "internalType": "string",
          "name": "imageHash",
          "type": "string"
        },
        {
          "internalType": "string",
          "name": "timestamp",
          "type": "string"
        },
        {
          "internalType": "string",
          "name": "misure",
          "type": "string"
        },
        {
          "internalType": "string",
          "name": "annotazioni",
          "type": "string"
        }
      ],
      "name": "storeItem",
      "outputs": [],
      "payable": false,
      "stateMutability": "nonpayable",
      "type": "function"
    },
    {
      "constant": true,
      "inputs": [],
      "name": "getGiornale",
      "outputs": [
        {
          "components": [
            {
              "internalType": "uint256",
              "name": "id",
              "type": "uint256"
            },
            {
              "internalType": "string",
              "name": "hashImmagine",
              "type": "string"
            },
            {
              "internalType": "string",
              "name": "timestamp",
              "type": "string"
            },
            {
              "internalType": "string",
              "name": "misure",
              "type": "string"
            },
            {
              "internalType": "string",
              "name": "annotazioni",
              "type": "string"
            }
          ],
          "internalType": "struct GiornaleDeiLavori.GiornaleItem[]",
          "name": "",
          "type": "tuple[]"
        }
      ],
      "payable": false,
      "stateMutability": "view",
      "type": "function"
    },
    {
      "constant": true,
      "inputs": [],
      "name": "getLength",
      "outputs": [
        {
          "internalType": "uint256",
          "name": "",
          "type": "uint256"
        }
      ],
      "payable": false,
      "stateMutability": "view",
      "type": "function"
    }
  ],
  "bytecode": "0x608060405234801561001057600080fd5b50336000806101000a81548173ffffffffffffffffffffffffffffffffffffffff021916908373ffffffffffffffffffffffffffffffffffffffff1602179055506000600281905550610d80806100686000396000f3fe608060405234801561001057600080fd5b506004361061004c5760003560e01c806338d9acdc146100515780635c7539bf146100855780637f5510e4146100a1578063be1c766b146100bf575b600080fd5b61006b60048036036100669190810190610991565b6100dd565b60405161007c959493929190610b9b565b60405180910390f35b61009f600480360361009a91908101906108ce565b610380565b005b6100a96104c5565b6040516100b69190610b5e565b60405180910390f35b6100c76107b6565b6040516100d49190610b80565b60405180910390f35b600181815481106100ea57fe5b9060005260206000209060050201600091509050806000015490806001018054600181600116156101000203166002900480601f01602080910402602001604051908101604052809291908181526020018280546001816001161561010002031660029004801561019c5780601f106101715761010080835404028352916020019161019c565b820191906000526020600020905b81548152906001019060200180831161017f57829003601f168201915b505050505090806002018054600181600116156101000203166002900480601f01602080910402602001604051908101604052809291908181526020018280546001816001161561010002031660029004801561023a5780601f1061020f5761010080835404028352916020019161023a565b820191906000526020600020905b81548152906001019060200180831161021d57829003601f168201915b505050505090806003018054600181600116156101000203166002900480601f0160208091040260200160405190810160405280929190818152602001828054600181600116156101000203166002900480156102d85780601f106102ad576101008083540402835291602001916102d8565b820191906000526020600020905b8154815290600101906020018083116102bb57829003601f168201915b505050505090806004018054600181600116156101000203166002900480601f0160208091040260200160405190810160405280929190818152602001828054600181600116156101000203166002900480156103765780601f1061034b57610100808354040283529160200191610376565b820191906000526020600020905b81548152906001019060200180831161035957829003601f168201915b5050505050905085565b6000809054906101000a900473ffffffffffffffffffffffffffffffffffffffff1673ffffffffffffffffffffffffffffffffffffffff163373ffffffffffffffffffffffffffffffffffffffff1614156104bf5760016040518060a00160405280600254815260200186815260200185815260200184815260200183815250908060018154018082558091505090600182039060005260206000209060050201600090919290919091506000820151816000015560208201518160010190805190602001906104519291906107c0565b50604082015181600201908051906020019061046e9291906107c0565b50606082015181600301908051906020019061048b9291906107c0565b5060808201518160040190805190602001906104a89291906107c0565b505050506002600081548092919060010191905055505b50505050565b60606001805480602002602001604051908101604052809291908181526020016000905b828210156107ad57838290600052602060002090600502016040518060a001604052908160008201548152602001600182018054600181600116156101000203166002900480601f0160208091040260200160405190810160405280929190818152602001828054600181600116156101000203166002900480156105af5780601f10610584576101008083540402835291602001916105af565b820191906000526020600020905b81548152906001019060200180831161059257829003601f168201915b50505050508152602001600282018054600181600116156101000203166002900480601f0160208091040260200160405190810160405280929190818152602001828054600181600116156101000203166002900480156106515780601f1061062657610100808354040283529160200191610651565b820191906000526020600020905b81548152906001019060200180831161063457829003601f168201915b50505050508152602001600382018054600181600116156101000203166002900480601f0160208091040260200160405190810160405280929190818152602001828054600181600116156101000203166002900480156106f35780601f106106c8576101008083540402835291602001916106f3565b820191906000526020600020905b8154815290600101906020018083116106d657829003601f168201915b50505050508152602001600482018054600181600116156101000203166002900480601f0160208091040260200160405190810160405280929190818152602001828054600181600116156101000203166002900480156107955780601f1061076a57610100808354040283529160200191610795565b820191906000526020600020905b81548152906001019060200180831161077857829003601f168201915b505050505081525050815260200190600101906104e9565b50505050905090565b6000600254905090565b828054600181600116156101000203166002900490600052602060002090601f016020900481019282601f1061080157805160ff191683800117855561082f565b8280016001018555821561082f579182015b8281111561082e578251825591602001919060010190610813565b5b50905061083c9190610840565b5090565b61086291905b8082111561085e576000816000905550600101610846565b5090565b90565b600082601f83011261087657600080fd5b813561088961088482610c37565b610c0a565b915080825260208301602083018583830111156108a557600080fd5b6108b0838284610cd3565b50505092915050565b6000813590506108c881610d26565b92915050565b600080600080608085870312156108e457600080fd5b600085013567ffffffffffffffff8111156108fe57600080fd5b61090a87828801610865565b945050602085013567ffffffffffffffff81111561092757600080fd5b61093387828801610865565b935050604085013567ffffffffffffffff81111561095057600080fd5b61095c87828801610865565b925050606085013567ffffffffffffffff81111561097957600080fd5b61098587828801610865565b91505092959194509250565b6000602082840312156109a357600080fd5b60006109b1848285016108b9565b91505092915050565b60006109c68383610ab5565b905092915050565b60006109d982610c73565b6109e38185610c96565b9350836020820285016109f585610c63565b8060005b85811015610a315784840389528151610a1285826109ba565b9450610a1d83610c89565b925060208a019950506001810190506109f9565b50829750879550505050505092915050565b6000610a4e82610c7e565b610a588185610ca7565b9350610a68818560208601610ce2565b610a7181610d15565b840191505092915050565b6000610a8782610c7e565b610a918185610cb8565b9350610aa1818560208601610ce2565b610aaa81610d15565b840191505092915050565b600060a083016000830151610acd6000860182610b40565b5060208301518482036020860152610ae58282610a43565b91505060408301518482036040860152610aff8282610a43565b91505060608301518482036060860152610b198282610a43565b91505060808301518482036080860152610b338282610a43565b9150508091505092915050565b610b4981610cc9565b82525050565b610b5881610cc9565b82525050565b60006020820190508181036000830152610b7881846109ce565b905092915050565b6000602082019050610b956000830184610b4f565b92915050565b600060a082019050610bb06000830188610b4f565b8181036020830152610bc28187610a7c565b90508181036040830152610bd68186610a7c565b90508181036060830152610bea8185610a7c565b90508181036080830152610bfe8184610a7c565b90509695505050505050565b6000604051905081810181811067ffffffffffffffff82111715610c2d57600080fd5b8060405250919050565b600067ffffffffffffffff821115610c4e57600080fd5b601f19601f8301169050602081019050919050565b6000819050602082019050919050565b600081519050919050565b600081519050919050565b6000602082019050919050565b600082825260208201905092915050565b600082825260208201905092915050565b600082825260208201905092915050565b6000819050919050565b82818337600083830152505050565b60005b83811015610d00578082015181840152602081019050610ce5565b83811115610d0f576000848401525b50505050565b6000601f19601f8301169050919050565b610d2f81610cc9565b8114610d3a57600080fd5b5056fea365627a7a723158208c9cffb2238c23a8ef6d492e7f2e09618773bd94089fd1d1fd8828ea2431f4c16c6578706572696d656e74616cf564736f6c63430005100040",
  "source": "pragma solidity >=0.4.22 <0.7.1;\npragma experimental ABIEncoderV2;\n\ncontract GiornaleDeiLavori {\n\n    address owner;\n    \n    struct GiornaleItem {\n        uint id;\n        string hashImmagine;\n        string timestamp;\n        string misure;\n        string annotazioni;\n    }\n\n    constructor() public {\n        owner = msg.sender;\n        length = 0;\n    }\n\n    modifier restricted() {\n        if (msg.sender == owner) _;\n    }\n    \n    GiornaleItem[] public giornale;\n\n    uint256 length;\n\n    function storeItem(string memory imageHash, string memory timestamp, string memory misure, string memory annotazioni) public restricted {\n        giornale.push(GiornaleItem({\n            id: length,\n            hashImmagine: imageHash,\n            timestamp: timestamp,\n            misure: misure,\n            annotazioni: annotazioni\n        }));\n        length++;\n    }\n    \n    function getGiornale() public view returns (GiornaleItem[] memory){\n        return giornale;\n    }\n\n    function getLength() public view returns (uint256){\n        return length;\n    }\n}\n",
  "sourcePath": "/home/kevin/progetti/progetto-cybsec/contracts/GiornaleDeiLavori.sol",
  "compiler": {
    "name": "solc",
    "version": "0.5.16+commit.9c3226ce.Emscripten.clang"
  },
  "schemaVersion": "3.2.3",
  "updatedAt": "2020-08-09T13:41:38.806Z",
  "networkType": "quorum",
  "devdoc": {
    "methods": {}
  },
  "userdoc": {
    "methods": {}
  }
}