{
  "contractName": "ImageStorage",
  "abi": [
    {
      "inputs": [
        {
          "internalType": "address",
          "name": "droneAddress",
          "type": "address"
        }
      ],
      "payable": false,
      "stateMutability": "nonpayable",
      "type": "constructor"
    },
    {
      "constant": true,
      "inputs": [
        {
          "internalType": "uint256",
          "name": "",
          "type": "uint256"
        }
      ],
      "name": "images",
      "outputs": [
        {
          "internalType": "string",
          "name": "hashIpfs",
          "type": "string"
        },
        {
          "internalType": "string",
          "name": "addTime",
          "type": "string"
        },
        {
          "internalType": "string",
          "name": "creationTime",
          "type": "string"
        },
        {
          "internalType": "string",
          "name": "fileName",
          "type": "string"
        },
        {
          "internalType": "enum ImageStorage.ImageState",
          "name": "state",
          "type": "uint8"
        }
      ],
      "payable": false,
      "stateMutability": "view",
      "type": "function"
    },
    {
      "constant": false,
      "inputs": [
        {
          "internalType": "string",
          "name": "newImageHash",
          "type": "string"
        },
        {
          "internalType": "string",
          "name": "fileName",
          "type": "string"
        },
        {
          "internalType": "string",
          "name": "creationTimestamp",
          "type": "string"
        },
        {
          "internalType": "string",
          "name": "addTimestamp",
          "type": "string"
        }
      ],
      "name": "storeImage",
      "outputs": [],
      "payable": false,
      "stateMutability": "nonpayable",
      "type": "function"
    },
    {
      "constant": false,
      "inputs": [
        {
          "internalType": "string[]",
          "name": "hashes",
          "type": "string[]"
        },
        {
          "internalType": "string[]",
          "name": "fileNames",
          "type": "string[]"
        },
        {
          "internalType": "string[]",
          "name": "creationTimestamp",
          "type": "string[]"
        },
        {
          "internalType": "string",
          "name": "addTimestamp",
          "type": "string"
        }
      ],
      "name": "storeImages",
      "outputs": [],
      "payable": false,
      "stateMutability": "nonpayable",
      "type": "function"
    },
    {
      "constant": false,
      "inputs": [
        {
          "internalType": "string",
          "name": "hash",
          "type": "string"
        }
      ],
      "name": "setProcessedImage",
      "outputs": [],
      "payable": false,
      "stateMutability": "nonpayable",
      "type": "function"
    },
    {
      "constant": false,
      "inputs": [
        {
          "internalType": "string",
          "name": "hash",
          "type": "string"
        }
      ],
      "name": "setCompletedImage",
      "outputs": [],
      "payable": false,
      "stateMutability": "nonpayable",
      "type": "function"
    },
    {
      "constant": true,
      "inputs": [],
      "name": "getImages",
      "outputs": [
        {
          "components": [
            {
              "internalType": "string",
              "name": "hashIpfs",
              "type": "string"
            },
            {
              "internalType": "string",
              "name": "addTime",
              "type": "string"
            },
            {
              "internalType": "string",
              "name": "creationTime",
              "type": "string"
            },
            {
              "internalType": "string",
              "name": "fileName",
              "type": "string"
            },
            {
              "internalType": "enum ImageStorage.ImageState",
              "name": "state",
              "type": "uint8"
            }
          ],
          "internalType": "struct ImageStorage.Image[]",
          "name": "",
          "type": "tuple[]"
        }
      ],
      "payable": false,
      "stateMutability": "view",
      "type": "function"
    },
    {
      "constant": true,
      "inputs": [
        {
          "internalType": "string",
          "name": "hash",
          "type": "string"
        }
      ],
      "name": "getImageFromHash",
      "outputs": [
        {
          "components": [
            {
              "internalType": "string",
              "name": "hashIpfs",
              "type": "string"
            },
            {
              "internalType": "string",
              "name": "addTime",
              "type": "string"
            },
            {
              "internalType": "string",
              "name": "creationTime",
              "type": "string"
            },
            {
              "internalType": "string",
              "name": "fileName",
              "type": "string"
            },
            {
              "internalType": "enum ImageStorage.ImageState",
              "name": "state",
              "type": "uint8"
            }
          ],
          "internalType": "struct ImageStorage.Image",
          "name": "",
          "type": "tuple"
        }
      ],
      "payable": false,
      "stateMutability": "view",
      "type": "function"
    },
    {
      "constant": true,
      "inputs": [],
      "name": "getLength",
      "outputs": [
        {
          "internalType": "uint256",
          "name": "",
          "type": "uint256"
        }
      ],
      "payable": false,
      "stateMutability": "view",
      "type": "function"
    }
  ],
  "bytecode": "0x60806040523480156200001157600080fd5b5060405162001cd838038062001cd88339818101604052620000379190810190620000de565b336000806101000a81548173ffffffffffffffffffffffffffffffffffffffff021916908373ffffffffffffffffffffffffffffffffffffffff16021790555080600160006101000a81548173ffffffffffffffffffffffffffffffffffffffff021916908373ffffffffffffffffffffffffffffffffffffffff16021790555060006004819055505062000158565b600081519050620000d8816200013e565b92915050565b600060208284031215620000f157600080fd5b60006200010184828501620000c7565b91505092915050565b600062000117826200011e565b9050919050565b600073ffffffffffffffffffffffffffffffffffffffff82169050919050565b62000149816200010a565b81146200015557600080fd5b50565b611b7080620001686000396000f3fe608060405234801561001057600080fd5b50600436106100885760003560e01c8063848564821161005b57806384856482146100ff578063b39e955814610133578063b796653e14610163578063be1c766b1461017f57610088565b806310452a231461008d57806311498334146100a95780633e45c80d146100c75780634eaf2dfc146100e3575b600080fd5b6100a760048036036100a291908101906113d2565b61019d565b005b6100b1610478565b6040516100be9190611890565b60405180910390f35b6100e160048036036100dc9190810190611495565b61078c565b005b6100fd60048036036100f89190810190611495565b61087b565b005b61011960048036036101149190810190611599565b610969565b60405161012a9594939291906118b2565b60405180910390f35b61014d60048036036101489190810190611495565b610c19565b60405161015a9190611921565b60405180910390f35b61017d600480360361017891908101906114d6565b610f59565b005b6101876111b8565b6040516101949190611943565b60405180910390f35b6000809054906101000a900473ffffffffffffffffffffffffffffffffffffffff1673ffffffffffffffffffffffffffffffffffffffff163373ffffffffffffffffffffffffffffffffffffffff1614806102455750600160009054906101000a900473ffffffffffffffffffffffffffffffffffffffff1673ffffffffffffffffffffffffffffffffffffffff163373ffffffffffffffffffffffffffffffffffffffff16145b156104725760008090505b845181101561047057600385828151811061026757fe5b602002602001015160405161027c9190611862565b908152602001604051809103902060010160009054906101000a900460ff166104635760026040518060a001604052808784815181106102b857fe5b602002602001015181526020018481526020018584815181106102d757fe5b602002602001015181526020018684815181106102f057fe5b602002602001015181526020016000600281111561030a57fe5b8152509080600181540180825580915050906001820390600052602060002090600502016000909192909190915060008201518160000190805190602001906103549291906111c2565b5060208201518160010190805190602001906103719291906111c2565b50604082015181600201908051906020019061038e9291906111c2565b5060608201518160030190805190602001906103ab9291906111c2565b5060808201518160040160006101000a81548160ff021916908360028111156103d057fe5b02179055505050506040518060400160405280600454815260200160011515815250600386838151811061040057fe5b60200260200101516040516104159190611862565b90815260200160405180910390206000820151816000015560208201518160010160006101000a81548160ff0219169083151502179055509050506004600081548092919060010191905055505b8080600101915050610250565b505b50505050565b60606002805480602002602001604051908101604052809291908181526020016000905b8282101561078357838290600052602060002090600502016040518060a0016040529081600082018054600181600116156101000203166002900480601f0160208091040260200160405190810160405280929190818152602001828054600181600116156101000203166002900480156105585780601f1061052d57610100808354040283529160200191610558565b820191906000526020600020905b81548152906001019060200180831161053b57829003601f168201915b50505050508152602001600182018054600181600116156101000203166002900480601f0160208091040260200160405190810160405280929190818152602001828054600181600116156101000203166002900480156105fa5780601f106105cf576101008083540402835291602001916105fa565b820191906000526020600020905b8154815290600101906020018083116105dd57829003601f168201915b50505050508152602001600282018054600181600116156101000203166002900480601f01602080910402602001604051908101604052809291908181526020018280546001816001161561010002031660029004801561069c5780601f106106715761010080835404028352916020019161069c565b820191906000526020600020905b81548152906001019060200180831161067f57829003601f168201915b50505050508152602001600382018054600181600116156101000203166002900480601f01602080910402602001604051908101604052809291908181526020018280546001816001161561010002031660029004801561073e5780601f106107135761010080835404028352916020019161073e565b820191906000526020600020905b81548152906001019060200180831161072157829003601f168201915b505050505081526020016004820160009054906101000a900460ff16600281111561076557fe5b600281111561077057fe5b815250508152602001906001019061049c565b50505050905090565b6000809054906101000a900473ffffffffffffffffffffffffffffffffffffffff1673ffffffffffffffffffffffffffffffffffffffff163373ffffffffffffffffffffffffffffffffffffffff161415610878576003816040516107f19190611879565b908152602001604051809103902060010160009054906101000a900460ff1661081657fe5b6001600260038360405161082a9190611879565b9081526020016040518091039020600001548154811061084657fe5b906000526020600020906005020160040160006101000a81548160ff0219169083600281111561087257fe5b02179055505b50565b6000809054906101000a900473ffffffffffffffffffffffffffffffffffffffff1673ffffffffffffffffffffffffffffffffffffffff163373ffffffffffffffffffffffffffffffffffffffff161415610966576003816040516108e09190611879565b908152602001604051809103902060010160009054906101000a900460ff1661090557fe5b6002806003836040516109189190611879565b9081526020016040518091039020600001548154811061093457fe5b906000526020600020906005020160040160006101000a81548160ff0219169083600281111561096057fe5b02179055505b50565b6002818154811061097657fe5b9060005260206000209060050201600091509050806000018054600181600116156101000203166002900480601f016020809104026020016040519081016040528092919081815260200182805460018160011615610100020316600290048015610a225780601f106109f757610100808354040283529160200191610a22565b820191906000526020600020905b815481529060010190602001808311610a0557829003601f168201915b505050505090806001018054600181600116156101000203166002900480601f016020809104026020016040519081016040528092919081815260200182805460018160011615610100020316600290048015610ac05780601f10610a9557610100808354040283529160200191610ac0565b820191906000526020600020905b815481529060010190602001808311610aa357829003601f168201915b505050505090806002018054600181600116156101000203166002900480601f016020809104026020016040519081016040528092919081815260200182805460018160011615610100020316600290048015610b5e5780601f10610b3357610100808354040283529160200191610b5e565b820191906000526020600020905b815481529060010190602001808311610b4157829003601f168201915b505050505090806003018054600181600116156101000203166002900480601f016020809104026020016040519081016040528092919081815260200182805460018160011615610100020316600290048015610bfc5780601f10610bd157610100808354040283529160200191610bfc565b820191906000526020600020905b815481529060010190602001808311610bdf57829003601f168201915b5050505050908060040160009054906101000a900460ff16905085565b610c21611242565b600382604051610c319190611879565b908152602001604051809103902060010160009054906101000a900460ff16610c5657fe5b6002600383604051610c689190611879565b90815260200160405180910390206000015481548110610c8457fe5b90600052602060002090600502016040518060a0016040529081600082018054600181600116156101000203166002900480601f016020809104026020016040519081016040528092919081815260200182805460018160011615610100020316600290048015610d365780601f10610d0b57610100808354040283529160200191610d36565b820191906000526020600020905b815481529060010190602001808311610d1957829003601f168201915b50505050508152602001600182018054600181600116156101000203166002900480601f016020809104026020016040519081016040528092919081815260200182805460018160011615610100020316600290048015610dd85780601f10610dad57610100808354040283529160200191610dd8565b820191906000526020600020905b815481529060010190602001808311610dbb57829003601f168201915b50505050508152602001600282018054600181600116156101000203166002900480601f016020809104026020016040519081016040528092919081815260200182805460018160011615610100020316600290048015610e7a5780601f10610e4f57610100808354040283529160200191610e7a565b820191906000526020600020905b815481529060010190602001808311610e5d57829003601f168201915b50505050508152602001600382018054600181600116156101000203166002900480601f016020809104026020016040519081016040528092919081815260200182805460018160011615610100020316600290048015610f1c5780601f10610ef157610100808354040283529160200191610f1c565b820191906000526020600020905b815481529060010190602001808311610eff57829003601f168201915b505050505081526020016004820160009054906101000a900460ff166002811115610f4357fe5b6002811115610f4e57fe5b815250509050919050565b6000809054906101000a900473ffffffffffffffffffffffffffffffffffffffff1673ffffffffffffffffffffffffffffffffffffffff163373ffffffffffffffffffffffffffffffffffffffff1614806110015750600160009054906101000a900473ffffffffffffffffffffffffffffffffffffffff1673ffffffffffffffffffffffffffffffffffffffff163373ffffffffffffffffffffffffffffffffffffffff16145b156111b2576003846040516110169190611879565b908152602001604051809103902060010160009054906101000a900460ff166111b15760026040518060a001604052808681526020018381526020018481526020018581526020016000600281111561106b57fe5b8152509080600181540180825580915050906001820390600052602060002090600502016000909192909190915060008201518160000190805190602001906110b59291906111c2565b5060208201518160010190805190602001906110d29291906111c2565b5060408201518160020190805190602001906110ef9291906111c2565b50606082015181600301908051906020019061110c9291906111c2565b5060808201518160040160006101000a81548160ff0219169083600281111561113157fe5b021790555050505060405180604001604052806004548152602001600115158152506003856040516111639190611879565b90815260200160405180910390206000820151816000015560208201518160010160006101000a81548160ff0219169083151502179055509050506004600081548092919060010191905055505b5b50505050565b6000600454905090565b828054600181600116156101000203166002900490600052602060002090601f016020900481019282601f1061120357805160ff1916838001178555611231565b82800160010185558215611231579182015b82811115611230578251825591602001919060010190611215565b5b50905061123e919061127c565b5090565b6040518060a00160405280606081526020016060815260200160608152602001606081526020016000600281111561127657fe5b81525090565b61129e91905b8082111561129a576000816000905550600101611282565b5090565b90565b600082601f8301126112b257600080fd5b81356112c56112c08261198b565b61195e565b9150818183526020840193506020810190508360005b8381101561130b57813586016112f18882611315565b8452602084019350602083019250506001810190506112db565b5050505092915050565b600082601f83011261132657600080fd5b8135611339611334826119b3565b61195e565b9150808252602083016020830185838301111561135557600080fd5b611360838284611ab6565b50505092915050565b600082601f83011261137a57600080fd5b813561138d611388826119df565b61195e565b915080825260208301602083018583830111156113a957600080fd5b6113b4838284611ab6565b50505092915050565b6000813590506113cc81611b16565b92915050565b600080600080608085870312156113e857600080fd5b600085013567ffffffffffffffff81111561140257600080fd5b61140e878288016112a1565b945050602085013567ffffffffffffffff81111561142b57600080fd5b611437878288016112a1565b935050604085013567ffffffffffffffff81111561145457600080fd5b611460878288016112a1565b925050606085013567ffffffffffffffff81111561147d57600080fd5b61148987828801611369565b91505092959194509250565b6000602082840312156114a757600080fd5b600082013567ffffffffffffffff8111156114c157600080fd5b6114cd84828501611369565b91505092915050565b600080600080608085870312156114ec57600080fd5b600085013567ffffffffffffffff81111561150657600080fd5b61151287828801611369565b945050602085013567ffffffffffffffff81111561152f57600080fd5b61153b87828801611369565b935050604085013567ffffffffffffffff81111561155857600080fd5b61156487828801611369565b925050606085013567ffffffffffffffff81111561158157600080fd5b61158d87828801611369565b91505092959194509250565b6000602082840312156115ab57600080fd5b60006115b9848285016113bd565b91505092915050565b60006115ce83836117c8565b905092915050565b60006115e182611a1b565b6115eb8185611a49565b9350836020820285016115fd85611a0b565b8060005b85811015611639578484038952815161161a85826115c2565b945061162583611a3c565b925060208a01995050600181019050611601565b50829750879550505050505092915050565b61165481611aa4565b82525050565b61166381611aa4565b82525050565b600061167482611a31565b61167e8185611a7c565b935061168e818560208601611ac5565b80840191505092915050565b60006116a582611a26565b6116af8185611a5a565b93506116bf818560208601611ac5565b6116c881611af8565b840191505092915050565b60006116de82611a26565b6116e88185611a6b565b93506116f8818560208601611ac5565b61170181611af8565b840191505092915050565b600061171782611a26565b6117218185611a7c565b9350611731818560208601611ac5565b80840191505092915050565b600060a083016000830151848203600086015261175a828261169a565b91505060208301518482036020860152611774828261169a565b9150506040830151848203604086015261178e828261169a565b915050606083015184820360608601526117a8828261169a565b91505060808301516117bd608086018261164b565b508091505092915050565b600060a08301600083015184820360008601526117e5828261169a565b915050602083015184820360208601526117ff828261169a565b91505060408301518482036040860152611819828261169a565b91505060608301518482036060860152611833828261169a565b9150506080830151611848608086018261164b565b508091505092915050565b61185c81611a9a565b82525050565b600061186e828461170c565b915081905092915050565b60006118858284611669565b915081905092915050565b600060208201905081810360008301526118aa81846115d6565b905092915050565b600060a08201905081810360008301526118cc81886116d3565b905081810360208301526118e081876116d3565b905081810360408301526118f481866116d3565b9050818103606083015261190881856116d3565b9050611917608083018461165a565b9695505050505050565b6000602082019050818103600083015261193b818461173d565b905092915050565b60006020820190506119586000830184611853565b92915050565b6000604051905081810181811067ffffffffffffffff8211171561198157600080fd5b8060405250919050565b600067ffffffffffffffff8211156119a257600080fd5b602082029050602081019050919050565b600067ffffffffffffffff8211156119ca57600080fd5b601f19601f8301169050602081019050919050565b600067ffffffffffffffff8211156119f657600080fd5b601f19601f8301169050602081019050919050565b6000819050602082019050919050565b600081519050919050565b600081519050919050565b600081519050919050565b6000602082019050919050565b600082825260208201905092915050565b600082825260208201905092915050565b600082825260208201905092915050565b600081905092915050565b6000819050611a9582611b09565b919050565b6000819050919050565b6000611aaf82611a87565b9050919050565b82818337600083830152505050565b60005b83811015611ae3578082015181840152602081019050611ac8565b83811115611af2576000848401525b50505050565b6000601f19601f8301169050919050565b60038110611b1357fe5b50565b611b1f81611a9a565b8114611b2a57600080fd5b5056fea365627a7a723158204cf14bbafdedb584a54e0dc2504c9aac112c8f8cfeef20bb4697e48a08d86a3f6c6578706572696d656e74616cf564736f6c63430005100040",
  "source": "pragma solidity >=0.4.22 <0.7.1;\npragma experimental ABIEncoderV2;\n\ncontract ImageStorage {\n\n    address owner;\n    address drone;\n    \n    enum ImageState { UnProcessed, Processed, Completed }\n    \n    struct Image {\n        string hashIpfs;\n        string addTime;\n        string creationTime;\n        string fileName;\n        ImageState state;\n    }\n    \n    struct ImageIndex {\n        uint index;\n        bool isData;\n    }\n    \n    Image[] public images;\n    \n    mapping(string => ImageIndex) hashToArray;\n\n    uint length;\n    \n    constructor(address droneAddress) public {\n        owner = msg.sender;\n        drone = droneAddress;\n        length = 0;\n    }\n\n    modifier dlOnly() {\n        if (msg.sender == owner) _;\n    }\n    \n    modifier restricted() {\n        if (msg.sender == owner || msg.sender == drone) _;\n    }\n\n    function storeImage(string memory newImageHash, string memory fileName, string memory creationTimestamp, string memory addTimestamp) public restricted {\n        if(!hashToArray[newImageHash].isData) {\n            images.push(Image({\n                hashIpfs: newImageHash,\n                fileName: fileName,\n                creationTime: creationTimestamp,\n                addTime: addTimestamp,\n                state: ImageState.UnProcessed\n            }));\n            hashToArray[newImageHash] = ImageIndex({\n                index: length,\n                isData: true\n            });\n            length++;\n        }\n    }\n    \n    function storeImages(string[] memory hashes, string[] memory fileNames, string[] memory creationTimestamp, string memory addTimestamp) public restricted {\n        for(uint i = 0; i < hashes.length; i++) {\n            if(!hashToArray[hashes[i]].isData) {\n                images.push(Image({\n                    hashIpfs: hashes[i],\n                    creationTime: creationTimestamp[i],\n                    fileName: fileNames[i],\n                    addTime: addTimestamp,\n                    state: ImageState.UnProcessed\n                }));\n                hashToArray[hashes[i]] = ImageIndex({\n                    index: length,\n                    isData: true\n                });\n                length++;\n            }\n        }\n    }\n    \n    function setProcessedImage(string memory hash) public dlOnly {\n        assert(hashToArray[hash].isData);\n        images[hashToArray[hash].index].state = ImageState.Processed;\n    }\n    \n    function setCompletedImage(string memory hash) public dlOnly {\n        assert(hashToArray[hash].isData);\n        images[hashToArray[hash].index].state = ImageState.Completed;\n    }\n    \n    function getImages() public view returns (Image[] memory){\n        return images;\n    }\n    \n    function getImageFromHash(string memory hash) public view returns (Image memory){\n        assert(hashToArray[hash].isData);\n        return images[hashToArray[hash].index];\n    }\n\n    function getLength() public view returns (uint){\n        return length;\n    }\n}",
  "sourcePath": "/home/kevin/progetti/progetto-cybsec/contracts/ImageStorage.sol",
  "compiler": {
    "name": "solc",
    "version": "0.5.16+commit.9c3226ce.Emscripten.clang"
  },
  "schemaVersion": "3.2.3",
  "updatedAt": "2020-09-04T07:29:07.193Z",
  "networkType": "quorum",
  "devdoc": {
    "methods": {}
  },
  "userdoc": {
    "methods": {}
  }
}