{
  "contractName": "ImageStorage",
  "abi": [
    {
      "inputs": [],
      "payable": false,
      "stateMutability": "nonpayable",
      "type": "constructor"
    },
    {
      "constant": true,
      "inputs": [
        {
          "internalType": "uint256",
          "name": "",
          "type": "uint256"
        }
      ],
      "name": "images",
      "outputs": [
        {
          "internalType": "string",
          "name": "hashIpfs",
          "type": "string"
        },
        {
          "internalType": "string",
          "name": "addTime",
          "type": "string"
        }
      ],
      "payable": false,
      "stateMutability": "view",
      "type": "function"
    },
    {
      "constant": false,
      "inputs": [
        {
          "internalType": "string",
          "name": "newImageHash",
          "type": "string"
        },
        {
          "internalType": "string",
          "name": "timestamp",
          "type": "string"
        }
      ],
      "name": "storeImage",
      "outputs": [],
      "payable": false,
      "stateMutability": "nonpayable",
      "type": "function"
    },
    {
      "constant": false,
      "inputs": [
        {
          "internalType": "string[]",
          "name": "hashes",
          "type": "string[]"
        },
        {
          "internalType": "string",
          "name": "timestamp",
          "type": "string"
        }
      ],
      "name": "storeImages",
      "outputs": [],
      "payable": false,
      "stateMutability": "nonpayable",
      "type": "function"
    },
    {
      "constant": true,
      "inputs": [],
      "name": "getImages",
      "outputs": [
        {
          "components": [
            {
              "internalType": "string",
              "name": "hashIpfs",
              "type": "string"
            },
            {
              "internalType": "string",
              "name": "addTime",
              "type": "string"
            }
          ],
          "internalType": "struct ImageStorage.Image[]",
          "name": "",
          "type": "tuple[]"
        }
      ],
      "payable": false,
      "stateMutability": "view",
      "type": "function"
    },
    {
      "constant": true,
      "inputs": [],
      "name": "getLength",
      "outputs": [
        {
          "internalType": "uint256",
          "name": "",
          "type": "uint256"
        }
      ],
      "payable": false,
      "stateMutability": "view",
      "type": "function"
    }
  ],
  "bytecode": "0x608060405234801561001057600080fd5b506000600181905550610bcc806100286000396000f3fe608060405234801561001057600080fd5b50600436106100575760003560e01c8063114983341461005c578063848564821461007a5780638c8067f1146100ab578063be1c766b146100c7578063f8285265146100e5575b600080fd5b610064610101565b604051610071919061098e565b60405180910390f35b610094600480360361008f9190810190610817565b6102a4565b6040516100a29291906109b0565b60405180910390f35b6100c560048036036100c0919081019061073f565b610405565b005b6100cf6104ca565b6040516100dc91906109e7565b60405180910390f35b6100ff60048036036100fa91908101906107ab565b6104d4565b005b60606000805480602002602001604051908101604052809291908181526020016000905b8282101561029b5783829060005260206000209060020201604051806040016040529081600082018054600181600116156101000203166002900480601f0160208091040260200160405190810160405280929190818152602001828054600181600116156101000203166002900480156101e15780601f106101b6576101008083540402835291602001916101e1565b820191906000526020600020905b8154815290600101906020018083116101c457829003601f168201915b50505050508152602001600182018054600181600116156101000203166002900480601f0160208091040260200160405190810160405280929190818152602001828054600181600116156101000203166002900480156102835780601f1061025857610100808354040283529160200191610283565b820191906000526020600020905b81548152906001019060200180831161026657829003601f168201915b50505050508152505081526020019060010190610125565b50505050905090565b600081815481106102b157fe5b9060005260206000209060020201600091509050806000018054600181600116156101000203166002900480601f01602080910402602001604051908101604052809291908181526020018280546001816001161561010002031660029004801561035d5780601f106103325761010080835404028352916020019161035d565b820191906000526020600020905b81548152906001019060200180831161034057829003601f168201915b505050505090806001018054600181600116156101000203166002900480601f0160208091040260200160405190810160405280929190818152602001828054600181600116156101000203166002900480156103fb5780601f106103d0576101008083540402835291602001916103fb565b820191906000526020600020905b8154815290600101906020018083116103de57829003601f168201915b5050505050905082565b60008090505b82518110156104c5576000604051806040016040528085848151811061042d57fe5b6020026020010151815260200184815250908060018154018082558091505090600182039060005260206000209060020201600090919290919091506000820151816000019080519060200190610485929190610569565b5060208201518160010190805190602001906104a2929190610569565b50505050600160008154809291906001019190505550808060010191505061040b565b505050565b6000600154905090565b6000604051806040016040528084815260200183815250908060018154018082558091505090600182039060005260206000209060020201600090919290919091506000820151816000019080519060200190610532929190610569565b50602082015181600101908051906020019061054f929190610569565b505050506001600081548092919060010191905055505050565b828054600181600116156101000203166002900490600052602060002090601f016020900481019282601f106105aa57805160ff19168380011785556105d8565b828001600101855582156105d8579182015b828111156105d75782518255916020019190600101906105bc565b5b5090506105e591906105e9565b5090565b61060b91905b808211156106075760008160009055506001016105ef565b5090565b90565b600082601f83011261061f57600080fd5b813561063261062d82610a2f565b610a02565b9150818183526020840193506020810190508360005b83811015610678578135860161065e8882610682565b845260208401935060208301925050600181019050610648565b5050505092915050565b600082601f83011261069357600080fd5b81356106a66106a182610a57565b610a02565b915080825260208301602083018583830111156106c257600080fd5b6106cd838284610b1f565b50505092915050565b600082601f8301126106e757600080fd5b81356106fa6106f582610a83565b610a02565b9150808252602083016020830185838301111561071657600080fd5b610721838284610b1f565b50505092915050565b60008135905061073981610b72565b92915050565b6000806040838503121561075257600080fd5b600083013567ffffffffffffffff81111561076c57600080fd5b6107788582860161060e565b925050602083013567ffffffffffffffff81111561079557600080fd5b6107a1858286016106d6565b9150509250929050565b600080604083850312156107be57600080fd5b600083013567ffffffffffffffff8111156107d857600080fd5b6107e4858286016106d6565b925050602083013567ffffffffffffffff81111561080157600080fd5b61080d858286016106d6565b9150509250929050565b60006020828403121561082957600080fd5b60006108378482850161072a565b91505092915050565b600061084c838361093b565b905092915050565b600061085f82610abf565b6108698185610ae2565b93508360208202850161087b85610aaf565b8060005b858110156108b757848403895281516108988582610840565b94506108a383610ad5565b925060208a0199505060018101905061087f565b50829750879550505050505092915050565b60006108d482610aca565b6108de8185610af3565b93506108ee818560208601610b2e565b6108f781610b61565b840191505092915050565b600061090d82610aca565b6109178185610b04565b9350610927818560208601610b2e565b61093081610b61565b840191505092915050565b6000604083016000830151848203600086015261095882826108c9565b9150506020830151848203602086015261097282826108c9565b9150508091505092915050565b61098881610b15565b82525050565b600060208201905081810360008301526109a88184610854565b905092915050565b600060408201905081810360008301526109ca8185610902565b905081810360208301526109de8184610902565b90509392505050565b60006020820190506109fc600083018461097f565b92915050565b6000604051905081810181811067ffffffffffffffff82111715610a2557600080fd5b8060405250919050565b600067ffffffffffffffff821115610a4657600080fd5b602082029050602081019050919050565b600067ffffffffffffffff821115610a6e57600080fd5b601f19601f8301169050602081019050919050565b600067ffffffffffffffff821115610a9a57600080fd5b601f19601f8301169050602081019050919050565b6000819050602082019050919050565b600081519050919050565b600081519050919050565b6000602082019050919050565b600082825260208201905092915050565b600082825260208201905092915050565b600082825260208201905092915050565b6000819050919050565b82818337600083830152505050565b60005b83811015610b4c578082015181840152602081019050610b31565b83811115610b5b576000848401525b50505050565b6000601f19601f8301169050919050565b610b7b81610b15565b8114610b8657600080fd5b5056fea365627a7a72315820c42b7997e5ef4baf89cb0e0a2c87367ed14901d39e35b1a81cd906639c48595e6c6578706572696d656e74616cf564736f6c63430005100040",
  "source": "pragma solidity >=0.4.22 <0.7.0;\npragma experimental ABIEncoderV2;\n\ncontract ImageStorage {\n    \n    struct Image {\n        string hashIpfs;\n        string addTime;\n    }\n    \n    Image[] public images;\n\n    uint256 length;\n    \n    constructor() public {\n        length = 0;\n    }\n\n    function storeImage(string memory newImageHash, string memory timestamp) public {\n        images.push(Image({\n            hashIpfs: newImageHash,\n            addTime: timestamp\n        }));\n        length++;\n    }\n    \n    function storeImages(string[] memory hashes, string memory timestamp) public {\n        for(uint i = 0; i < hashes.length; i++) {\n            images.push(Image({\n                hashIpfs: hashes[i],\n                addTime: timestamp\n            }));\n            length++;\n        }\n    }\n    \n    function getImages() public view returns (Image[] memory){\n        return images;\n    }\n\n    function getLength() public view returns (uint256){\n        return length;\n    }\n}\n",
  "sourcePath": "/home/kevin/progetti/progetto-cybsec/contracts/ImageStorage.sol",
  "compiler": {
    "name": "solc",
    "version": "0.5.16+commit.9c3226ce.Emscripten.clang"
  },
  "schemaVersion": "3.2.3",
  "updatedAt": "2020-07-29T16:25:35.236Z",
  "networkType": "quorum",
  "devdoc": {
    "methods": {}
  },
  "userdoc": {
    "methods": {}
  }
}