{
  "contractName": "ImageStorage",
  "abi": [
    {
      "inputs": [],
      "payable": false,
      "stateMutability": "nonpayable",
      "type": "constructor"
    },
    {
      "constant": true,
      "inputs": [
        {
          "internalType": "uint256",
          "name": "",
          "type": "uint256"
        }
      ],
      "name": "images",
      "outputs": [
        {
          "internalType": "string",
          "name": "hashIpfs",
          "type": "string"
        },
        {
          "internalType": "string",
          "name": "addTime",
          "type": "string"
        },
        {
          "internalType": "string",
          "name": "creationTime",
          "type": "string"
        },
        {
          "internalType": "string",
          "name": "fileName",
          "type": "string"
        },
        {
          "internalType": "enum ImageStorage.ImageState",
          "name": "state",
          "type": "uint8"
        }
      ],
      "payable": false,
      "stateMutability": "view",
      "type": "function"
    },
    {
      "constant": false,
      "inputs": [
        {
          "internalType": "string",
          "name": "newImageHash",
          "type": "string"
        },
        {
          "internalType": "string",
          "name": "fileName",
          "type": "string"
        },
        {
          "internalType": "string",
          "name": "creationTimestamp",
          "type": "string"
        },
        {
          "internalType": "string",
          "name": "addTimestamp",
          "type": "string"
        }
      ],
      "name": "storeImage",
      "outputs": [],
      "payable": false,
      "stateMutability": "nonpayable",
      "type": "function"
    },
    {
      "constant": false,
      "inputs": [
        {
          "internalType": "string[]",
          "name": "hashes",
          "type": "string[]"
        },
        {
          "internalType": "string[]",
          "name": "fileNames",
          "type": "string[]"
        },
        {
          "internalType": "string[]",
          "name": "creationTimestamp",
          "type": "string[]"
        },
        {
          "internalType": "string",
          "name": "addTimestamp",
          "type": "string"
        }
      ],
      "name": "storeImages",
      "outputs": [],
      "payable": false,
      "stateMutability": "nonpayable",
      "type": "function"
    },
    {
      "constant": false,
      "inputs": [
        {
          "internalType": "string",
          "name": "hash",
          "type": "string"
        }
      ],
      "name": "setProcessedImage",
      "outputs": [],
      "payable": false,
      "stateMutability": "nonpayable",
      "type": "function"
    },
    {
      "constant": false,
      "inputs": [
        {
          "internalType": "string",
          "name": "hash",
          "type": "string"
        }
      ],
      "name": "setCompletedImage",
      "outputs": [],
      "payable": false,
      "stateMutability": "nonpayable",
      "type": "function"
    },
    {
      "constant": true,
      "inputs": [],
      "name": "getImages",
      "outputs": [
        {
          "components": [
            {
              "internalType": "string",
              "name": "hashIpfs",
              "type": "string"
            },
            {
              "internalType": "string",
              "name": "addTime",
              "type": "string"
            },
            {
              "internalType": "string",
              "name": "creationTime",
              "type": "string"
            },
            {
              "internalType": "string",
              "name": "fileName",
              "type": "string"
            },
            {
              "internalType": "enum ImageStorage.ImageState",
              "name": "state",
              "type": "uint8"
            }
          ],
          "internalType": "struct ImageStorage.Image[]",
          "name": "",
          "type": "tuple[]"
        }
      ],
      "payable": false,
      "stateMutability": "view",
      "type": "function"
    },
    {
      "constant": true,
      "inputs": [
        {
          "internalType": "string",
          "name": "hash",
          "type": "string"
        }
      ],
      "name": "getImageFromHash",
      "outputs": [
        {
          "components": [
            {
              "internalType": "string",
              "name": "hashIpfs",
              "type": "string"
            },
            {
              "internalType": "string",
              "name": "addTime",
              "type": "string"
            },
            {
              "internalType": "string",
              "name": "creationTime",
              "type": "string"
            },
            {
              "internalType": "string",
              "name": "fileName",
              "type": "string"
            },
            {
              "internalType": "enum ImageStorage.ImageState",
              "name": "state",
              "type": "uint8"
            }
          ],
          "internalType": "struct ImageStorage.Image",
          "name": "",
          "type": "tuple"
        }
      ],
      "payable": false,
      "stateMutability": "view",
      "type": "function"
    },
    {
      "constant": true,
      "inputs": [],
      "name": "getLength",
      "outputs": [
        {
          "internalType": "uint256",
          "name": "",
          "type": "uint256"
        }
      ],
      "payable": false,
      "stateMutability": "view",
      "type": "function"
    }
  ],
  "bytecode": "0x608060405234801561001057600080fd5b506000600281905550611969806100286000396000f3fe608060405234801561001057600080fd5b50600436106100885760003560e01c8063848564821161005b57806384856482146100ff578063b39e955814610133578063b796653e14610163578063be1c766b1461017f57610088565b806310452a231461008d57806311498334146100a95780633e45c80d146100c75780634eaf2dfc146100e3575b600080fd5b6100a760048036036100a291908101906111cb565b61019d565b005b6100b16103ca565b6040516100be9190611689565b60405180910390f35b6100e160048036036100dc919081019061128e565b6106de565b005b6100fd60048036036100f8919081019061128e565b610777565b005b61011960048036036101149190810190611392565b610810565b60405161012a9594939291906116ab565b60405180910390f35b61014d6004803603610148919081019061128e565b610ac0565b60405161015a919061171a565b60405180910390f35b61017d600480360361017891908101906112cf565b610e00565b005b610187610fb1565b604051610194919061173c565b60405180910390f35b60008090505b84518110156103c35760018582815181106101ba57fe5b60200260200101516040516101cf919061165b565b908152602001604051809103902060010160009054906101000a900460ff166103b65760006040518060a0016040528087848151811061020b57fe5b6020026020010151815260200184815260200185848151811061022a57fe5b6020026020010151815260200186848151811061024357fe5b602002602001015181526020016000600281111561025d57fe5b8152509080600181540180825580915050906001820390600052602060002090600502016000909192909190915060008201518160000190805190602001906102a7929190610fbb565b5060208201518160010190805190602001906102c4929190610fbb565b5060408201518160020190805190602001906102e1929190610fbb565b5060608201518160030190805190602001906102fe929190610fbb565b5060808201518160040160006101000a81548160ff0219169083600281111561032357fe5b02179055505050506040518060400160405280600254815260200160011515815250600186838151811061035357fe5b6020026020010151604051610368919061165b565b90815260200160405180910390206000820151816000015560208201518160010160006101000a81548160ff0219169083151502179055509050506002600081548092919060010191905055505b80806001019150506101a3565b5050505050565b60606000805480602002602001604051908101604052809291908181526020016000905b828210156106d557838290600052602060002090600502016040518060a0016040529081600082018054600181600116156101000203166002900480601f0160208091040260200160405190810160405280929190818152602001828054600181600116156101000203166002900480156104aa5780601f1061047f576101008083540402835291602001916104aa565b820191906000526020600020905b81548152906001019060200180831161048d57829003601f168201915b50505050508152602001600182018054600181600116156101000203166002900480601f01602080910402602001604051908101604052809291908181526020018280546001816001161561010002031660029004801561054c5780601f106105215761010080835404028352916020019161054c565b820191906000526020600020905b81548152906001019060200180831161052f57829003601f168201915b50505050508152602001600282018054600181600116156101000203166002900480601f0160208091040260200160405190810160405280929190818152602001828054600181600116156101000203166002900480156105ee5780601f106105c3576101008083540402835291602001916105ee565b820191906000526020600020905b8154815290600101906020018083116105d157829003601f168201915b50505050508152602001600382018054600181600116156101000203166002900480601f0160208091040260200160405190810160405280929190818152602001828054600181600116156101000203166002900480156106905780601f1061066557610100808354040283529160200191610690565b820191906000526020600020905b81548152906001019060200180831161067357829003601f168201915b505050505081526020016004820160009054906101000a900460ff1660028111156106b757fe5b60028111156106c257fe5b81525050815260200190600101906103ee565b50505050905090565b6001816040516106ee9190611672565b908152602001604051809103902060010160009054906101000a900460ff1661071357fe5b600160006001836040516107279190611672565b9081526020016040518091039020600001548154811061074357fe5b906000526020600020906005020160040160006101000a81548160ff0219169083600281111561076f57fe5b021790555050565b6001816040516107879190611672565b908152602001604051809103902060010160009054906101000a900460ff166107ac57fe5b600260006001836040516107c09190611672565b908152602001604051809103902060000154815481106107dc57fe5b906000526020600020906005020160040160006101000a81548160ff0219169083600281111561080857fe5b021790555050565b6000818154811061081d57fe5b9060005260206000209060050201600091509050806000018054600181600116156101000203166002900480601f0160208091040260200160405190810160405280929190818152602001828054600181600116156101000203166002900480156108c95780601f1061089e576101008083540402835291602001916108c9565b820191906000526020600020905b8154815290600101906020018083116108ac57829003601f168201915b505050505090806001018054600181600116156101000203166002900480601f0160208091040260200160405190810160405280929190818152602001828054600181600116156101000203166002900480156109675780601f1061093c57610100808354040283529160200191610967565b820191906000526020600020905b81548152906001019060200180831161094a57829003601f168201915b505050505090806002018054600181600116156101000203166002900480601f016020809104026020016040519081016040528092919081815260200182805460018160011615610100020316600290048015610a055780601f106109da57610100808354040283529160200191610a05565b820191906000526020600020905b8154815290600101906020018083116109e857829003601f168201915b505050505090806003018054600181600116156101000203166002900480601f016020809104026020016040519081016040528092919081815260200182805460018160011615610100020316600290048015610aa35780601f10610a7857610100808354040283529160200191610aa3565b820191906000526020600020905b815481529060010190602001808311610a8657829003601f168201915b5050505050908060040160009054906101000a900460ff16905085565b610ac861103b565b600182604051610ad89190611672565b908152602001604051809103902060010160009054906101000a900460ff16610afd57fe5b6000600183604051610b0f9190611672565b90815260200160405180910390206000015481548110610b2b57fe5b90600052602060002090600502016040518060a0016040529081600082018054600181600116156101000203166002900480601f016020809104026020016040519081016040528092919081815260200182805460018160011615610100020316600290048015610bdd5780601f10610bb257610100808354040283529160200191610bdd565b820191906000526020600020905b815481529060010190602001808311610bc057829003601f168201915b50505050508152602001600182018054600181600116156101000203166002900480601f016020809104026020016040519081016040528092919081815260200182805460018160011615610100020316600290048015610c7f5780601f10610c5457610100808354040283529160200191610c7f565b820191906000526020600020905b815481529060010190602001808311610c6257829003601f168201915b50505050508152602001600282018054600181600116156101000203166002900480601f016020809104026020016040519081016040528092919081815260200182805460018160011615610100020316600290048015610d215780601f10610cf657610100808354040283529160200191610d21565b820191906000526020600020905b815481529060010190602001808311610d0457829003601f168201915b50505050508152602001600382018054600181600116156101000203166002900480601f016020809104026020016040519081016040528092919081815260200182805460018160011615610100020316600290048015610dc35780601f10610d9857610100808354040283529160200191610dc3565b820191906000526020600020905b815481529060010190602001808311610da657829003601f168201915b505050505081526020016004820160009054906101000a900460ff166002811115610dea57fe5b6002811115610df557fe5b815250509050919050565b600184604051610e109190611672565b908152602001604051809103902060010160009054906101000a900460ff16610fab5760006040518060a0016040528086815260200183815260200184815260200185815260200160006002811115610e6557fe5b815250908060018154018082558091505090600182039060005260206000209060050201600090919290919091506000820151816000019080519060200190610eaf929190610fbb565b506020820151816001019080519060200190610ecc929190610fbb565b506040820151816002019080519060200190610ee9929190610fbb565b506060820151816003019080519060200190610f06929190610fbb565b5060808201518160040160006101000a81548160ff02191690836002811115610f2b57fe5b02179055505050506040518060400160405280600254815260200160011515815250600185604051610f5d9190611672565b90815260200160405180910390206000820151816000015560208201518160010160006101000a81548160ff0219169083151502179055509050506002600081548092919060010191905055505b50505050565b6000600254905090565b828054600181600116156101000203166002900490600052602060002090601f016020900481019282601f10610ffc57805160ff191683800117855561102a565b8280016001018555821561102a579182015b8281111561102957825182559160200191906001019061100e565b5b5090506110379190611075565b5090565b6040518060a00160405280606081526020016060815260200160608152602001606081526020016000600281111561106f57fe5b81525090565b61109791905b8082111561109357600081600090555060010161107b565b5090565b90565b600082601f8301126110ab57600080fd5b81356110be6110b982611784565b611757565b9150818183526020840193506020810190508360005b8381101561110457813586016110ea888261110e565b8452602084019350602083019250506001810190506110d4565b5050505092915050565b600082601f83011261111f57600080fd5b813561113261112d826117ac565b611757565b9150808252602083016020830185838301111561114e57600080fd5b6111598382846118af565b50505092915050565b600082601f83011261117357600080fd5b8135611186611181826117d8565b611757565b915080825260208301602083018583830111156111a257600080fd5b6111ad8382846118af565b50505092915050565b6000813590506111c58161190f565b92915050565b600080600080608085870312156111e157600080fd5b600085013567ffffffffffffffff8111156111fb57600080fd5b6112078782880161109a565b945050602085013567ffffffffffffffff81111561122457600080fd5b6112308782880161109a565b935050604085013567ffffffffffffffff81111561124d57600080fd5b6112598782880161109a565b925050606085013567ffffffffffffffff81111561127657600080fd5b61128287828801611162565b91505092959194509250565b6000602082840312156112a057600080fd5b600082013567ffffffffffffffff8111156112ba57600080fd5b6112c684828501611162565b91505092915050565b600080600080608085870312156112e557600080fd5b600085013567ffffffffffffffff8111156112ff57600080fd5b61130b87828801611162565b945050602085013567ffffffffffffffff81111561132857600080fd5b61133487828801611162565b935050604085013567ffffffffffffffff81111561135157600080fd5b61135d87828801611162565b925050606085013567ffffffffffffffff81111561137a57600080fd5b61138687828801611162565b91505092959194509250565b6000602082840312156113a457600080fd5b60006113b2848285016111b6565b91505092915050565b60006113c783836115c1565b905092915050565b60006113da82611814565b6113e48185611842565b9350836020820285016113f685611804565b8060005b85811015611432578484038952815161141385826113bb565b945061141e83611835565b925060208a019950506001810190506113fa565b50829750879550505050505092915050565b61144d8161189d565b82525050565b61145c8161189d565b82525050565b600061146d8261182a565b6114778185611875565b93506114878185602086016118be565b80840191505092915050565b600061149e8261181f565b6114a88185611853565b93506114b88185602086016118be565b6114c1816118f1565b840191505092915050565b60006114d78261181f565b6114e18185611864565b93506114f18185602086016118be565b6114fa816118f1565b840191505092915050565b60006115108261181f565b61151a8185611875565b935061152a8185602086016118be565b80840191505092915050565b600060a08301600083015184820360008601526115538282611493565b9150506020830151848203602086015261156d8282611493565b915050604083015184820360408601526115878282611493565b915050606083015184820360608601526115a18282611493565b91505060808301516115b66080860182611444565b508091505092915050565b600060a08301600083015184820360008601526115de8282611493565b915050602083015184820360208601526115f88282611493565b915050604083015184820360408601526116128282611493565b9150506060830151848203606086015261162c8282611493565b91505060808301516116416080860182611444565b508091505092915050565b61165581611893565b82525050565b60006116678284611505565b915081905092915050565b600061167e8284611462565b915081905092915050565b600060208201905081810360008301526116a381846113cf565b905092915050565b600060a08201905081810360008301526116c581886114cc565b905081810360208301526116d981876114cc565b905081810360408301526116ed81866114cc565b9050818103606083015261170181856114cc565b90506117106080830184611453565b9695505050505050565b600060208201905081810360008301526117348184611536565b905092915050565b6000602082019050611751600083018461164c565b92915050565b6000604051905081810181811067ffffffffffffffff8211171561177a57600080fd5b8060405250919050565b600067ffffffffffffffff82111561179b57600080fd5b602082029050602081019050919050565b600067ffffffffffffffff8211156117c357600080fd5b601f19601f8301169050602081019050919050565b600067ffffffffffffffff8211156117ef57600080fd5b601f19601f8301169050602081019050919050565b6000819050602082019050919050565b600081519050919050565b600081519050919050565b600081519050919050565b6000602082019050919050565b600082825260208201905092915050565b600082825260208201905092915050565b600082825260208201905092915050565b600081905092915050565b600081905061188e82611902565b919050565b6000819050919050565b60006118a882611880565b9050919050565b82818337600083830152505050565b60005b838110156118dc5780820151818401526020810190506118c1565b838111156118eb576000848401525b50505050565b6000601f19601f8301169050919050565b6003811061190c57fe5b50565b61191881611893565b811461192357600080fd5b5056fea365627a7a72315820e3ee4f0d74dbf7e18e32562406116ea8e843ee1bb1d4f22c09fdfbc7cf3608be6c6578706572696d656e74616cf564736f6c63430005100040",
  "source": "pragma solidity >=0.4.22 <0.7.0;\npragma experimental ABIEncoderV2;\n\ncontract ImageStorage {\n    \n    enum ImageState { UnProcessed, Processed, Completed }\n    \n    struct Image {\n        string hashIpfs;\n        string addTime;\n        string creationTime;\n        string fileName;\n        ImageState state;\n    }\n    \n    struct ImageIndex {\n        uint index;\n        bool isData;\n    }\n    \n    Image[] public images;\n    \n    mapping(string => ImageIndex) hashToArray;\n\n    uint length;\n    \n    constructor() public {\n        length = 0;\n    }\n\n    function storeImage(string memory newImageHash, string memory fileName, string memory creationTimestamp, string memory addTimestamp) public {\n        if(!hashToArray[newImageHash].isData) {\n            images.push(Image({\n                hashIpfs: newImageHash,\n                fileName: fileName,\n                creationTime: creationTimestamp,\n                addTime: addTimestamp,\n                state: ImageState.UnProcessed\n            }));\n            hashToArray[newImageHash] = ImageIndex({\n                index: length,\n                isData: true\n            });\n            length++;\n        }\n    }\n    \n    function storeImages(string[] memory hashes, string[] memory fileNames, string[] memory creationTimestamp, string memory addTimestamp) public {\n        for(uint i = 0; i < hashes.length; i++) {\n            if(!hashToArray[hashes[i]].isData) {\n                images.push(Image({\n                    hashIpfs: hashes[i],\n                    creationTime: creationTimestamp[i],\n                    fileName: fileNames[i],\n                    addTime: addTimestamp,\n                    state: ImageState.UnProcessed\n                }));\n                hashToArray[hashes[i]] = ImageIndex({\n                    index: length,\n                    isData: true\n                });\n                length++;\n            }\n        }\n    }\n    \n    function setProcessedImage(string memory hash) public {\n        assert(hashToArray[hash].isData);\n        images[hashToArray[hash].index].state = ImageState.Processed;\n    }\n    \n    function setCompletedImage(string memory hash) public {\n        assert(hashToArray[hash].isData);\n        images[hashToArray[hash].index].state = ImageState.Completed;\n    }\n    \n    function getImages() public view returns (Image[] memory){\n        return images;\n    }\n    \n    function getImageFromHash(string memory hash) public view returns (Image memory){\n        assert(hashToArray[hash].isData);\n        return images[hashToArray[hash].index];\n    }\n\n    function getLength() public view returns (uint){\n        return length;\n    }\n}",
  "sourcePath": "/home/kevin/progetti/progetto-cybsec/contracts/ImageStorage.sol",
  "compiler": {
    "name": "solc",
    "version": "0.5.16+commit.9c3226ce.Emscripten.clang"
  },
  "schemaVersion": "3.2.3",
  "updatedAt": "2020-08-05T14:39:57.949Z",
  "networkType": "quorum",
  "devdoc": {
    "methods": {}
  },
  "userdoc": {
    "methods": {}
  }
}