{
  "contractName": "LogFotogrammetria",
  "abi": [
    {
      "inputs": [],
      "payable": false,
      "stateMutability": "nonpayable",
      "type": "constructor"
    },
    {
      "constant": true,
      "inputs": [
        {
          "internalType": "uint256",
          "name": "",
          "type": "uint256"
        }
      ],
      "name": "log",
      "outputs": [
        {
          "internalType": "uint256",
          "name": "id",
          "type": "uint256"
        },
        {
          "internalType": "string",
          "name": "hashImmagine",
          "type": "string"
        },
        {
          "internalType": "address",
          "name": "caller",
          "type": "address"
        },
        {
          "internalType": "string",
          "name": "timestamp",
          "type": "string"
        },
        {
          "internalType": "uint256",
          "name": "result",
          "type": "uint256"
        }
      ],
      "payable": false,
      "stateMutability": "view",
      "type": "function"
    },
    {
      "constant": false,
      "inputs": [
        {
          "internalType": "string",
          "name": "timestamp",
          "type": "string"
        },
        {
          "internalType": "uint256",
          "name": "result",
          "type": "uint256"
        },
        {
          "internalType": "string",
          "name": "hashImmagine",
          "type": "string"
        },
        {
          "internalType": "string",
          "name": "misure",
          "type": "string"
        }
      ],
      "name": "storeItem",
      "outputs": [],
      "payable": false,
      "stateMutability": "nonpayable",
      "type": "function"
    },
    {
      "constant": true,
      "inputs": [],
      "name": "getLog",
      "outputs": [
        {
          "components": [
            {
              "internalType": "uint256",
              "name": "id",
              "type": "uint256"
            },
            {
              "internalType": "string",
              "name": "hashImmagine",
              "type": "string"
            },
            {
              "internalType": "address",
              "name": "caller",
              "type": "address"
            },
            {
              "internalType": "string",
              "name": "timestamp",
              "type": "string"
            },
            {
              "internalType": "uint256",
              "name": "result",
              "type": "uint256"
            }
          ],
          "internalType": "struct LogFotogrammetria.LogItem[]",
          "name": "",
          "type": "tuple[]"
        }
      ],
      "payable": false,
      "stateMutability": "view",
      "type": "function"
    },
    {
      "constant": true,
      "inputs": [
        {
          "internalType": "string",
          "name": "hashImmagine",
          "type": "string"
        }
      ],
      "name": "getMeasureFromHash",
      "outputs": [
        {
          "internalType": "string",
          "name": "",
          "type": "string"
        }
      ],
      "payable": false,
      "stateMutability": "view",
      "type": "function"
    },
    {
      "constant": true,
      "inputs": [],
      "name": "getLength",
      "outputs": [
        {
          "internalType": "uint256",
          "name": "",
          "type": "uint256"
        }
      ],
      "payable": false,
      "stateMutability": "view",
      "type": "function"
    }
  ],
  "bytecode": "0x608060405234801561001057600080fd5b50336000806101000a81548173ffffffffffffffffffffffffffffffffffffffff021916908373ffffffffffffffffffffffffffffffffffffffff1602179055506000600381905550610e87806100686000396000f3fe608060405234801561001057600080fd5b50600436106100575760003560e01c8063111048491461005c578063909e4ab614610078578063a658c76214610096578063be1c766b146100c6578063f82c50f1146100e4575b600080fd5b61007660048036036100719190810190610900565b610118565b005b6100806102c7565b60405161008d9190610c09565b60405180910390f35b6100b060048036036100ab91908101906108bf565b6104d4565b6040516100bd9190610c2b565b60405180910390f35b6100ce610594565b6040516100db9190610c4d565b60405180910390f35b6100fe60048036036100f991908101906109ab565b61059e565b60405161010f959493929190610c68565b60405180910390f35b6000809054906101000a900473ffffffffffffffffffffffffffffffffffffffff1673ffffffffffffffffffffffffffffffffffffffff163373ffffffffffffffffffffffffffffffffffffffff1614156102c15760026040518060a0016040528060035481526020018481526020013373ffffffffffffffffffffffffffffffffffffffff16815260200186815260200185815250908060018154018082558091505090600182039060005260206000209060050201600090919290919091506000820151816000015560208201518160010190805190602001906101ff929190610731565b5060408201518160020160006101000a81548173ffffffffffffffffffffffffffffffffffffffff021916908373ffffffffffffffffffffffffffffffffffffffff1602179055506060820151816003019080519060200190610263929190610731565b506080820151816004015550505060036000815480929190600101919050555060018314156102c0578060018360405161029d9190610bf2565b908152602001604051809103902090805190602001906102be9291906107b1565b505b5b50505050565b60606002805480602002602001604051908101604052809291908181526020016000905b828210156104cb57838290600052602060002090600502016040518060a001604052908160008201548152602001600182018054600181600116156101000203166002900480601f0160208091040260200160405190810160405280929190818152602001828054600181600116156101000203166002900480156103b15780601f10610386576101008083540402835291602001916103b1565b820191906000526020600020905b81548152906001019060200180831161039457829003601f168201915b505050505081526020016002820160009054906101000a900473ffffffffffffffffffffffffffffffffffffffff1673ffffffffffffffffffffffffffffffffffffffff1673ffffffffffffffffffffffffffffffffffffffff168152602001600382018054600181600116156101000203166002900480601f0160208091040260200160405190810160405280929190818152602001828054600181600116156101000203166002900480156104a95780601f1061047e576101008083540402835291602001916104a9565b820191906000526020600020905b81548152906001019060200180831161048c57829003601f168201915b50505050508152602001600482015481525050815260200190600101906102eb565b50505050905090565b60606001826040516104e69190610bf2565b90815260200160405180910390208054600181600116156101000203166002900480601f0160208091040260200160405190810160405280929190818152602001828054600181600116156101000203166002900480156105885780601f1061055d57610100808354040283529160200191610588565b820191906000526020600020905b81548152906001019060200180831161056b57829003601f168201915b50505050509050919050565b6000600354905090565b600281815481106105ab57fe5b9060005260206000209060050201600091509050806000015490806001018054600181600116156101000203166002900480601f01602080910402602001604051908101604052809291908181526020018280546001816001161561010002031660029004801561065d5780601f106106325761010080835404028352916020019161065d565b820191906000526020600020905b81548152906001019060200180831161064057829003601f168201915b5050505050908060020160009054906101000a900473ffffffffffffffffffffffffffffffffffffffff1690806003018054600181600116156101000203166002900480601f0160208091040260200160405190810160405280929190818152602001828054600181600116156101000203166002900480156107215780601f106106f657610100808354040283529160200191610721565b820191906000526020600020905b81548152906001019060200180831161070457829003601f168201915b5050505050908060040154905085565b828054600181600116156101000203166002900490600052602060002090601f016020900481019282601f1061077257805160ff19168380011785556107a0565b828001600101855582156107a0579182015b8281111561079f578251825591602001919060010190610784565b5b5090506107ad9190610831565b5090565b828054600181600116156101000203166002900490600052602060002090601f016020900481019282601f106107f257805160ff1916838001178555610820565b82800160010185558215610820579182015b8281111561081f578251825591602001919060010190610804565b5b50905061082d9190610831565b5090565b61085391905b8082111561084f576000816000905550600101610837565b5090565b90565b600082601f83011261086757600080fd5b813561087a61087582610cf6565b610cc9565b9150808252602083016020830185838301111561089657600080fd5b6108a1838284610dda565b50505092915050565b6000813590506108b981610e2d565b92915050565b6000602082840312156108d157600080fd5b600082013567ffffffffffffffff8111156108eb57600080fd5b6108f784828501610856565b91505092915050565b6000806000806080858703121561091657600080fd5b600085013567ffffffffffffffff81111561093057600080fd5b61093c87828801610856565b945050602061094d878288016108aa565b935050604085013567ffffffffffffffff81111561096a57600080fd5b61097687828801610856565b925050606085013567ffffffffffffffff81111561099357600080fd5b61099f87828801610856565b91505092959194509250565b6000602082840312156109bd57600080fd5b60006109cb848285016108aa565b91505092915050565b60006109e08383610b57565b905092915050565b6109f181610d9e565b82525050565b610a0081610d9e565b82525050565b6000610a1182610d32565b610a1b8185610d60565b935083602082028501610a2d85610d22565b8060005b85811015610a695784840389528151610a4a85826109d4565b9450610a5583610d53565b925060208a01995050600181019050610a31565b50829750879550505050505092915050565b6000610a8682610d48565b610a908185610d82565b9350610aa0818560208601610de9565b610aa981610e1c565b840191505092915050565b6000610abf82610d48565b610ac98185610d93565b9350610ad9818560208601610de9565b80840191505092915050565b6000610af082610d3d565b610afa8185610d71565b9350610b0a818560208601610de9565b610b1381610e1c565b840191505092915050565b6000610b2982610d3d565b610b338185610d82565b9350610b43818560208601610de9565b610b4c81610e1c565b840191505092915050565b600060a083016000830151610b6f6000860182610bd4565b5060208301518482036020860152610b878282610ae5565b9150506040830151610b9c60408601826109e8565b5060608301518482036060860152610bb48282610ae5565b9150506080830151610bc96080860182610bd4565b508091505092915050565b610bdd81610dd0565b82525050565b610bec81610dd0565b82525050565b6000610bfe8284610ab4565b915081905092915050565b60006020820190508181036000830152610c238184610a06565b905092915050565b60006020820190508181036000830152610c458184610a7b565b905092915050565b6000602082019050610c626000830184610be3565b92915050565b600060a082019050610c7d6000830188610be3565b8181036020830152610c8f8187610b1e565b9050610c9e60408301866109f7565b8181036060830152610cb08185610b1e565b9050610cbf6080830184610be3565b9695505050505050565b6000604051905081810181811067ffffffffffffffff82111715610cec57600080fd5b8060405250919050565b600067ffffffffffffffff821115610d0d57600080fd5b601f19601f8301169050602081019050919050565b6000819050602082019050919050565b600081519050919050565b600081519050919050565b600081519050919050565b6000602082019050919050565b600082825260208201905092915050565b600082825260208201905092915050565b600082825260208201905092915050565b600081905092915050565b6000610da982610db0565b9050919050565b600073ffffffffffffffffffffffffffffffffffffffff82169050919050565b6000819050919050565b82818337600083830152505050565b60005b83811015610e07578082015181840152602081019050610dec565b83811115610e16576000848401525b50505050565b6000601f19601f8301169050919050565b610e3681610dd0565b8114610e4157600080fd5b5056fea365627a7a723158205c7129bad5ead1aec69a2458aee44adc98acb86f26fb5a6bd1c5b4c5b1574b4f6c6578706572696d656e74616cf564736f6c63430005100040",
  "source": "pragma solidity >=0.4.22 <0.7.1;\npragma experimental ABIEncoderV2;\n\ncontract LogFotogrammetria {\n\n    address owner;\n\n    mapping(string => string) hashToMeasure;\n    \n    struct LogItem {\n        uint id;\n        string hashImmagine;\n        address caller;\n        string timestamp;\n        // 0 = ERROR, 1 = SUCCESS\n        uint result;\n    }\n    \n    LogItem[] public log;\n\n    uint256 length;\n    \n    constructor() public {\n        owner = msg.sender;\n        length = 0;\n    }\n\n    modifier restricted() {\n        if (msg.sender == owner) _;\n    }\n\n    function storeItem(string memory timestamp, uint result, string memory hashImmagine, string memory misure) public restricted {\n        log.push(LogItem({\n            id: length,\n            hashImmagine: hashImmagine,\n            caller: msg.sender,\n            timestamp: timestamp,\n            result: result\n        }));\n        length++;\n\n        if(result == 1) {\n            hashToMeasure[hashImmagine] = misure;\n        }\n    }\n    \n    function getLog() public view returns (LogItem[] memory){\n        return log;\n    }\n\n    function getMeasureFromHash(string memory hashImmagine) public view returns (string memory) {\n        return hashToMeasure[hashImmagine];\n    }\n\n    function getLength() public view returns (uint256){\n        return length;\n    }\n}\n",
  "sourcePath": "/home/kevin/progetti/progetto-cybsec/contracts/LogFotogrammetria.sol",
  "compiler": {
    "name": "solc",
    "version": "0.5.16+commit.9c3226ce.Emscripten.clang"
  },
  "schemaVersion": "3.2.3",
  "updatedAt": "2020-08-16T14:07:23.524Z",
  "devdoc": {
    "methods": {}
  },
  "userdoc": {
    "methods": {}
  }
}