{
  "contractName": "LogFotogrammetria",
  "abi": [
    {
      "inputs": [],
      "payable": false,
      "stateMutability": "nonpayable",
      "type": "constructor"
    },
    {
      "constant": true,
      "inputs": [
        {
          "internalType": "uint256",
          "name": "",
          "type": "uint256"
        }
      ],
      "name": "log",
      "outputs": [
        {
          "internalType": "uint256",
          "name": "id",
          "type": "uint256"
        },
        {
          "internalType": "string",
          "name": "hashImmagine",
          "type": "string"
        },
        {
          "internalType": "address",
          "name": "caller",
          "type": "address"
        },
        {
          "internalType": "string",
          "name": "timestamp",
          "type": "string"
        },
        {
          "internalType": "uint256",
          "name": "result",
          "type": "uint256"
        }
      ],
      "payable": false,
      "stateMutability": "view",
      "type": "function"
    },
    {
      "constant": false,
      "inputs": [
        {
          "internalType": "string",
          "name": "timestamp",
          "type": "string"
        },
        {
          "internalType": "uint256",
          "name": "result",
          "type": "uint256"
        },
        {
          "internalType": "string",
          "name": "hashImmagine",
          "type": "string"
        },
        {
          "internalType": "string",
          "name": "misure",
          "type": "string"
        }
      ],
      "name": "storeItem",
      "outputs": [],
      "payable": false,
      "stateMutability": "nonpayable",
      "type": "function"
    },
    {
      "constant": true,
      "inputs": [],
      "name": "getLog",
      "outputs": [
        {
          "components": [
            {
              "internalType": "uint256",
              "name": "id",
              "type": "uint256"
            },
            {
              "internalType": "string",
              "name": "hashImmagine",
              "type": "string"
            },
            {
              "internalType": "address",
              "name": "caller",
              "type": "address"
            },
            {
              "internalType": "string",
              "name": "timestamp",
              "type": "string"
            },
            {
              "internalType": "uint256",
              "name": "result",
              "type": "uint256"
            }
          ],
          "internalType": "struct LogFotogrammetria.LogItem[]",
          "name": "",
          "type": "tuple[]"
        }
      ],
      "payable": false,
      "stateMutability": "view",
      "type": "function"
    },
    {
      "constant": true,
      "inputs": [
        {
          "internalType": "string",
          "name": "hashImmagine",
          "type": "string"
        }
      ],
      "name": "getMeasureFromHash",
      "outputs": [
        {
          "internalType": "string",
          "name": "",
          "type": "string"
        }
      ],
      "payable": false,
      "stateMutability": "view",
      "type": "function"
    },
    {
      "constant": true,
      "inputs": [],
      "name": "getLength",
      "outputs": [
        {
          "internalType": "uint256",
          "name": "",
          "type": "uint256"
        }
      ],
      "payable": false,
      "stateMutability": "view",
      "type": "function"
    }
  ],
  "bytecode": "0x608060405234801561001057600080fd5b506000600281905550610e31806100286000396000f3fe608060405234801561001057600080fd5b50600436106100575760003560e01c8063111048491461005c578063909e4ab614610078578063a658c76214610096578063be1c766b146100c6578063f82c50f1146100e4575b600080fd5b610076600480360361007191908101906108aa565b610118565b005b610080610271565b60405161008d9190610bb3565b60405180910390f35b6100b060048036036100ab9190810190610869565b61047e565b6040516100bd9190610bd5565b60405180910390f35b6100ce61053e565b6040516100db9190610bf7565b60405180910390f35b6100fe60048036036100f99190810190610955565b610548565b60405161010f959493929190610c12565b60405180910390f35b60016040518060a0016040528060025481526020018481526020013373ffffffffffffffffffffffffffffffffffffffff16815260200186815260200185815250908060018154018082558091505090600182039060005260206000209060050201600090919290919091506000820151816000015560208201518160010190805190602001906101aa9291906106db565b5060408201518160020160006101000a81548173ffffffffffffffffffffffffffffffffffffffff021916908373ffffffffffffffffffffffffffffffffffffffff160217905550606082015181600301908051906020019061020e9291906106db565b5060808201518160040155505050600260008154809291906001019190505550600183141561026b57806000836040516102489190610b9c565b9081526020016040518091039020908051906020019061026992919061075b565b505b50505050565b60606001805480602002602001604051908101604052809291908181526020016000905b8282101561047557838290600052602060002090600502016040518060a001604052908160008201548152602001600182018054600181600116156101000203166002900480601f01602080910402602001604051908101604052809291908181526020018280546001816001161561010002031660029004801561035b5780601f106103305761010080835404028352916020019161035b565b820191906000526020600020905b81548152906001019060200180831161033e57829003601f168201915b505050505081526020016002820160009054906101000a900473ffffffffffffffffffffffffffffffffffffffff1673ffffffffffffffffffffffffffffffffffffffff1673ffffffffffffffffffffffffffffffffffffffff168152602001600382018054600181600116156101000203166002900480601f0160208091040260200160405190810160405280929190818152602001828054600181600116156101000203166002900480156104535780601f1061042857610100808354040283529160200191610453565b820191906000526020600020905b81548152906001019060200180831161043657829003601f168201915b5050505050815260200160048201548152505081526020019060010190610295565b50505050905090565b60606000826040516104909190610b9c565b90815260200160405180910390208054600181600116156101000203166002900480601f0160208091040260200160405190810160405280929190818152602001828054600181600116156101000203166002900480156105325780601f1061050757610100808354040283529160200191610532565b820191906000526020600020905b81548152906001019060200180831161051557829003601f168201915b50505050509050919050565b6000600254905090565b6001818154811061055557fe5b9060005260206000209060050201600091509050806000015490806001018054600181600116156101000203166002900480601f0160208091040260200160405190810160405280929190818152602001828054600181600116156101000203166002900480156106075780601f106105dc57610100808354040283529160200191610607565b820191906000526020600020905b8154815290600101906020018083116105ea57829003601f168201915b5050505050908060020160009054906101000a900473ffffffffffffffffffffffffffffffffffffffff1690806003018054600181600116156101000203166002900480601f0160208091040260200160405190810160405280929190818152602001828054600181600116156101000203166002900480156106cb5780601f106106a0576101008083540402835291602001916106cb565b820191906000526020600020905b8154815290600101906020018083116106ae57829003601f168201915b5050505050908060040154905085565b828054600181600116156101000203166002900490600052602060002090601f016020900481019282601f1061071c57805160ff191683800117855561074a565b8280016001018555821561074a579182015b8281111561074957825182559160200191906001019061072e565b5b50905061075791906107db565b5090565b828054600181600116156101000203166002900490600052602060002090601f016020900481019282601f1061079c57805160ff19168380011785556107ca565b828001600101855582156107ca579182015b828111156107c95782518255916020019190600101906107ae565b5b5090506107d791906107db565b5090565b6107fd91905b808211156107f95760008160009055506001016107e1565b5090565b90565b600082601f83011261081157600080fd5b813561082461081f82610ca0565b610c73565b9150808252602083016020830185838301111561084057600080fd5b61084b838284610d84565b50505092915050565b60008135905061086381610dd7565b92915050565b60006020828403121561087b57600080fd5b600082013567ffffffffffffffff81111561089557600080fd5b6108a184828501610800565b91505092915050565b600080600080608085870312156108c057600080fd5b600085013567ffffffffffffffff8111156108da57600080fd5b6108e687828801610800565b94505060206108f787828801610854565b935050604085013567ffffffffffffffff81111561091457600080fd5b61092087828801610800565b925050606085013567ffffffffffffffff81111561093d57600080fd5b61094987828801610800565b91505092959194509250565b60006020828403121561096757600080fd5b600061097584828501610854565b91505092915050565b600061098a8383610b01565b905092915050565b61099b81610d48565b82525050565b6109aa81610d48565b82525050565b60006109bb82610cdc565b6109c58185610d0a565b9350836020820285016109d785610ccc565b8060005b85811015610a1357848403895281516109f4858261097e565b94506109ff83610cfd565b925060208a019950506001810190506109db565b50829750879550505050505092915050565b6000610a3082610cf2565b610a3a8185610d2c565b9350610a4a818560208601610d93565b610a5381610dc6565b840191505092915050565b6000610a6982610cf2565b610a738185610d3d565b9350610a83818560208601610d93565b80840191505092915050565b6000610a9a82610ce7565b610aa48185610d1b565b9350610ab4818560208601610d93565b610abd81610dc6565b840191505092915050565b6000610ad382610ce7565b610add8185610d2c565b9350610aed818560208601610d93565b610af681610dc6565b840191505092915050565b600060a083016000830151610b196000860182610b7e565b5060208301518482036020860152610b318282610a8f565b9150506040830151610b466040860182610992565b5060608301518482036060860152610b5e8282610a8f565b9150506080830151610b736080860182610b7e565b508091505092915050565b610b8781610d7a565b82525050565b610b9681610d7a565b82525050565b6000610ba88284610a5e565b915081905092915050565b60006020820190508181036000830152610bcd81846109b0565b905092915050565b60006020820190508181036000830152610bef8184610a25565b905092915050565b6000602082019050610c0c6000830184610b8d565b92915050565b600060a082019050610c276000830188610b8d565b8181036020830152610c398187610ac8565b9050610c4860408301866109a1565b8181036060830152610c5a8185610ac8565b9050610c696080830184610b8d565b9695505050505050565b6000604051905081810181811067ffffffffffffffff82111715610c9657600080fd5b8060405250919050565b600067ffffffffffffffff821115610cb757600080fd5b601f19601f8301169050602081019050919050565b6000819050602082019050919050565b600081519050919050565b600081519050919050565b600081519050919050565b6000602082019050919050565b600082825260208201905092915050565b600082825260208201905092915050565b600082825260208201905092915050565b600081905092915050565b6000610d5382610d5a565b9050919050565b600073ffffffffffffffffffffffffffffffffffffffff82169050919050565b6000819050919050565b82818337600083830152505050565b60005b83811015610db1578082015181840152602081019050610d96565b83811115610dc0576000848401525b50505050565b6000601f19601f8301169050919050565b610de081610d7a565b8114610deb57600080fd5b5056fea365627a7a723158201a8ec684f991c60a2a7eeeb996e37b10b17bc9235d7ddcb3e9b098df7126579c6c6578706572696d656e74616cf564736f6c63430005100040",
  "source": "pragma solidity >=0.4.22 <0.7.0;\npragma experimental ABIEncoderV2;\n\ncontract LogFotogrammetria {\n\n    mapping(string => string) hashToMeasure;\n    \n    struct LogItem {\n        uint id;\n        string hashImmagine;\n        address caller;\n        string timestamp;\n        // 0 = ERROR, 1 = SUCCESS\n        uint result;\n    }\n    \n    LogItem[] public log;\n\n    uint256 length;\n    \n    constructor() public {\n        length = 0;\n    }\n\n    function storeItem(string memory timestamp, uint result, string memory hashImmagine, string memory misure) public {\n        log.push(LogItem({\n            id: length,\n            hashImmagine: hashImmagine,\n            caller: msg.sender,\n            timestamp: timestamp,\n            result: result\n        }));\n        length++;\n\n        if(result == 1) {\n            hashToMeasure[hashImmagine] = misure;\n        }\n    }\n    \n    function getLog() public view returns (LogItem[] memory){\n        return log;\n    }\n\n    function getMeasureFromHash(string memory hashImmagine) public view returns (string memory) {\n        return hashToMeasure[hashImmagine];\n    }\n\n    function getLength() public view returns (uint256){\n        return length;\n    }\n}\n",
  "sourcePath": "/home/kevin/progetti/progetto-cybsec/contracts/LogFotogrammetria.sol",
  "compiler": {
    "name": "solc",
    "version": "0.5.16+commit.9c3226ce.Emscripten.clang"
  },
  "schemaVersion": "3.2.3",
  "updatedAt": "2020-08-16T10:31:44.378Z",
  "networkType": "quorum",
  "devdoc": {
    "methods": {}
  },
  "userdoc": {
    "methods": {}
  }
}