{
  "contractName": "LogFotogrammetria",
  "abi": [
    {
      "inputs": [],
      "payable": false,
      "stateMutability": "nonpayable",
      "type": "constructor"
    },
    {
      "constant": true,
      "inputs": [
        {
          "internalType": "uint256",
          "name": "",
          "type": "uint256"
        }
      ],
      "name": "log",
      "outputs": [
        {
          "internalType": "uint256",
          "name": "id",
          "type": "uint256"
        },
        {
          "internalType": "address",
          "name": "caller",
          "type": "address"
        },
        {
          "internalType": "string",
          "name": "timestamp",
          "type": "string"
        },
        {
          "internalType": "string",
          "name": "result",
          "type": "string"
        }
      ],
      "payable": false,
      "stateMutability": "view",
      "type": "function"
    },
    {
      "constant": false,
      "inputs": [
        {
          "internalType": "string",
          "name": "timestamp",
          "type": "string"
        },
        {
          "internalType": "string",
          "name": "result",
          "type": "string"
        }
      ],
      "name": "storeItem",
      "outputs": [],
      "payable": false,
      "stateMutability": "nonpayable",
      "type": "function"
    },
    {
      "constant": true,
      "inputs": [],
      "name": "getLog",
      "outputs": [
        {
          "components": [
            {
              "internalType": "uint256",
              "name": "id",
              "type": "uint256"
            },
            {
              "internalType": "address",
              "name": "caller",
              "type": "address"
            },
            {
              "internalType": "string",
              "name": "timestamp",
              "type": "string"
            },
            {
              "internalType": "string",
              "name": "result",
              "type": "string"
            }
          ],
          "internalType": "struct LogFotogrammetria.LogItem[]",
          "name": "",
          "type": "tuple[]"
        }
      ],
      "payable": false,
      "stateMutability": "view",
      "type": "function"
    },
    {
      "constant": true,
      "inputs": [],
      "name": "getLength",
      "outputs": [
        {
          "internalType": "uint256",
          "name": "",
          "type": "uint256"
        }
      ],
      "payable": false,
      "stateMutability": "view",
      "type": "function"
    }
  ],
  "bytecode": "0x608060405234801561001057600080fd5b506000600181905550610afc806100286000396000f3fe608060405234801561001057600080fd5b506004361061004c5760003560e01c8063909e4ab614610051578063be1c766b1461006f578063e3a140831461008d578063f82c50f1146100a9575b600080fd5b6100596100dc565b60405161006691906108c4565b60405180910390f35b6100776102df565b60405161008491906108e6565b60405180910390f35b6100a760048036036100a2919081019061068e565b6102e9565b005b6100c360048036036100be91908101906106fa565b6103f3565b6040516100d39493929190610901565b60405180910390f35b60606000805480602002602001604051908101604052809291908181526020016000905b828210156102d65783829060005260206000209060040201604051806080016040529081600082015481526020016001820160009054906101000a900473ffffffffffffffffffffffffffffffffffffffff1673ffffffffffffffffffffffffffffffffffffffff1673ffffffffffffffffffffffffffffffffffffffff168152602001600282018054600181600116156101000203166002900480601f01602080910402602001604051908101604052809291908181526020018280546001816001161561010002031660029004801561021c5780601f106101f15761010080835404028352916020019161021c565b820191906000526020600020905b8154815290600101906020018083116101ff57829003601f168201915b50505050508152602001600382018054600181600116156101000203166002900480601f0160208091040260200160405190810160405280929190818152602001828054600181600116156101000203166002900480156102be5780601f10610293576101008083540402835291602001916102be565b820191906000526020600020905b8154815290600101906020018083116102a157829003601f168201915b50505050508152505081526020019060010190610100565b50505050905090565b6000600154905090565b6000604051806080016040528060015481526020013373ffffffffffffffffffffffffffffffffffffffff16815260200184815260200183815250908060018154018082558091505090600182039060005260206000209060040201600090919290919091506000820151816000015560208201518160010160006101000a81548173ffffffffffffffffffffffffffffffffffffffff021916908373ffffffffffffffffffffffffffffffffffffffff16021790555060408201518160020190805190602001906103bc929190610580565b5060608201518160030190805190602001906103d9929190610580565b505050506001600081548092919060010191905055505050565b6000818154811061040057fe5b90600052602060002090600402016000915090508060000154908060010160009054906101000a900473ffffffffffffffffffffffffffffffffffffffff1690806002018054600181600116156101000203166002900480601f0160208091040260200160405190810160405280929190818152602001828054600181600116156101000203166002900480156104d85780601f106104ad576101008083540402835291602001916104d8565b820191906000526020600020905b8154815290600101906020018083116104bb57829003601f168201915b505050505090806003018054600181600116156101000203166002900480601f0160208091040260200160405190810160405280929190818152602001828054600181600116156101000203166002900480156105765780601f1061054b57610100808354040283529160200191610576565b820191906000526020600020905b81548152906001019060200180831161055957829003601f168201915b5050505050905084565b828054600181600116156101000203166002900490600052602060002090601f016020900481019282601f106105c157805160ff19168380011785556105ef565b828001600101855582156105ef579182015b828111156105ee5782518255916020019190600101906105d3565b5b5090506105fc9190610600565b5090565b61062291905b8082111561061e576000816000905550600101610606565b5090565b90565b600082601f83011261063657600080fd5b813561064961064482610981565b610954565b9150808252602083016020830185838301111561066557600080fd5b610670838284610a4f565b50505092915050565b60008135905061068881610aa2565b92915050565b600080604083850312156106a157600080fd5b600083013567ffffffffffffffff8111156106bb57600080fd5b6106c785828601610625565b925050602083013567ffffffffffffffff8111156106e457600080fd5b6106f085828601610625565b9150509250929050565b60006020828403121561070c57600080fd5b600061071a84828501610679565b91505092915050565b600061072f838361083c565b905092915050565b61074081610a13565b82525050565b61074f81610a13565b82525050565b6000610760826109bd565b61076a81856109e0565b93508360208202850161077c856109ad565b8060005b858110156107b857848403895281516107998582610723565b94506107a4836109d3565b925060208a01995050600181019050610780565b50829750879550505050505092915050565b60006107d5826109c8565b6107df81856109f1565b93506107ef818560208601610a5e565b6107f881610a91565b840191505092915050565b600061080e826109c8565b6108188185610a02565b9350610828818560208601610a5e565b61083181610a91565b840191505092915050565b600060808301600083015161085460008601826108a6565b5060208301516108676020860182610737565b506040830151848203604086015261087f82826107ca565b9150506060830151848203606086015261089982826107ca565b9150508091505092915050565b6108af81610a45565b82525050565b6108be81610a45565b82525050565b600060208201905081810360008301526108de8184610755565b905092915050565b60006020820190506108fb60008301846108b5565b92915050565b600060808201905061091660008301876108b5565b6109236020830186610746565b81810360408301526109358185610803565b905081810360608301526109498184610803565b905095945050505050565b6000604051905081810181811067ffffffffffffffff8211171561097757600080fd5b8060405250919050565b600067ffffffffffffffff82111561099857600080fd5b601f19601f8301169050602081019050919050565b6000819050602082019050919050565b600081519050919050565b600081519050919050565b6000602082019050919050565b600082825260208201905092915050565b600082825260208201905092915050565b600082825260208201905092915050565b6000610a1e82610a25565b9050919050565b600073ffffffffffffffffffffffffffffffffffffffff82169050919050565b6000819050919050565b82818337600083830152505050565b60005b83811015610a7c578082015181840152602081019050610a61565b83811115610a8b576000848401525b50505050565b6000601f19601f8301169050919050565b610aab81610a45565b8114610ab657600080fd5b5056fea365627a7a72315820ff3cf0e4ac06741d7a26f1e711ae2e26aeb6b6de652f92c4a678a022cb90d0066c6578706572696d656e74616cf564736f6c63430005100040",
  "source": "pragma solidity >=0.4.22 <0.7.0;\npragma experimental ABIEncoderV2;\n\ncontract LogFotogrammetria {\n    \n    struct LogItem {\n        uint id;\n        address caller;\n        string timestamp;\n        string result;\n    }\n    \n    LogItem[] public log;\n\n    uint256 length;\n    \n    constructor() public {\n        length = 0;\n    }\n\n    function storeItem(string memory timestamp, string memory result) public {\n        log.push(LogItem({\n            id: length,\n            caller: msg.sender,\n            timestamp: timestamp,\n            result: result\n        }));\n        length++;\n    }\n    \n    function getLog() public view returns (LogItem[] memory){\n        return log;\n    }\n\n    function getLength() public view returns (uint256){\n        return length;\n    }\n}\n",
  "sourcePath": "/home/kevin/progetti/progetto-cybsec/contracts/LogFotogrammetria.sol",
  "compiler": {
    "name": "solc",
    "version": "0.5.16+commit.9c3226ce.Emscripten.clang"
  },
  "schemaVersion": "3.2.3",
  "updatedAt": "2020-07-29T16:25:35.253Z",
  "networkType": "quorum",
  "devdoc": {
    "methods": {}
  },
  "userdoc": {
    "methods": {}
  }
}